{
  "contractName": "ImageContract",
  "abi": [
    {
      "inputs": [],
      "stateMutability": "nonpayable",
      "type": "constructor"
    },
    {
      "anonymous": false,
      "inputs": [
        {
          "indexed": true,
          "internalType": "address",
          "name": "owner",
          "type": "address"
        },
        {
          "indexed": true,
          "internalType": "address",
          "name": "approved",
          "type": "address"
        },
        {
          "indexed": true,
          "internalType": "uint256",
          "name": "tokenId",
          "type": "uint256"
        }
      ],
      "name": "Approval",
      "type": "event"
    },
    {
      "anonymous": false,
      "inputs": [
        {
          "indexed": true,
          "internalType": "address",
          "name": "owner",
          "type": "address"
        },
        {
          "indexed": true,
          "internalType": "address",
          "name": "operator",
          "type": "address"
        },
        {
          "indexed": false,
          "internalType": "bool",
          "name": "approved",
          "type": "bool"
        }
      ],
      "name": "ApprovalForAll",
      "type": "event"
    },
    {
      "anonymous": false,
      "inputs": [
        {
          "indexed": true,
          "internalType": "address",
          "name": "from",
          "type": "address"
        },
        {
          "indexed": true,
          "internalType": "address",
          "name": "to",
          "type": "address"
        },
        {
          "indexed": true,
          "internalType": "uint256",
          "name": "tokenId",
          "type": "uint256"
        }
      ],
      "name": "Transfer",
      "type": "event"
    },
    {
      "inputs": [
        {
          "internalType": "address",
          "name": "to",
          "type": "address"
        },
        {
          "internalType": "uint256",
          "name": "tokenId",
          "type": "uint256"
        }
      ],
      "name": "approve",
      "outputs": [],
      "stateMutability": "nonpayable",
      "type": "function"
    },
    {
      "inputs": [
        {
          "internalType": "address",
          "name": "owner",
          "type": "address"
        }
      ],
      "name": "balanceOf",
      "outputs": [
        {
          "internalType": "uint256",
          "name": "",
          "type": "uint256"
        }
      ],
      "stateMutability": "view",
      "type": "function"
    },
    {
      "inputs": [
        {
          "internalType": "uint256",
          "name": "tokenId",
          "type": "uint256"
        }
      ],
      "name": "getApproved",
      "outputs": [
        {
          "internalType": "address",
          "name": "",
          "type": "address"
        }
      ],
      "stateMutability": "view",
      "type": "function"
    },
    {
      "inputs": [
        {
          "internalType": "uint256",
          "name": "",
          "type": "uint256"
        }
      ],
      "name": "imageData",
      "outputs": [
        {
          "internalType": "string",
          "name": "name",
          "type": "string"
        },
        {
          "internalType": "string",
          "name": "description",
          "type": "string"
        },
        {
          "internalType": "string",
          "name": "url",
          "type": "string"
        },
        {
          "internalType": "uint256",
          "name": "price",
          "type": "uint256"
        },
        {
          "internalType": "string",
          "name": "token",
          "type": "string"
        }
      ],
      "stateMutability": "view",
      "type": "function"
    },
    {
      "inputs": [
        {
          "internalType": "uint256",
          "name": "",
          "type": "uint256"
        }
      ],
      "name": "images",
      "outputs": [
        {
          "internalType": "string",
          "name": "",
          "type": "string"
        }
      ],
      "stateMutability": "view",
      "type": "function"
    },
    {
      "inputs": [
        {
          "internalType": "address",
          "name": "owner",
          "type": "address"
        },
        {
          "internalType": "address",
          "name": "operator",
          "type": "address"
        }
      ],
      "name": "isApprovedForAll",
      "outputs": [
        {
          "internalType": "bool",
          "name": "",
          "type": "bool"
        }
      ],
      "stateMutability": "view",
      "type": "function"
    },
    {
      "inputs": [],
      "name": "name",
      "outputs": [
        {
          "internalType": "string",
          "name": "",
          "type": "string"
        }
      ],
      "stateMutability": "view",
      "type": "function"
    },
    {
      "inputs": [
        {
          "internalType": "uint256",
          "name": "tokenId",
          "type": "uint256"
        }
      ],
      "name": "ownerOf",
      "outputs": [
        {
          "internalType": "address",
          "name": "",
          "type": "address"
        }
      ],
      "stateMutability": "view",
      "type": "function"
    },
    {
      "inputs": [
        {
          "internalType": "address",
          "name": "from",
          "type": "address"
        },
        {
          "internalType": "address",
          "name": "to",
          "type": "address"
        },
        {
          "internalType": "uint256",
          "name": "tokenId",
          "type": "uint256"
        }
      ],
      "name": "safeTransferFrom",
      "outputs": [],
      "stateMutability": "nonpayable",
      "type": "function"
    },
    {
      "inputs": [
        {
          "internalType": "address",
          "name": "from",
          "type": "address"
        },
        {
          "internalType": "address",
          "name": "to",
          "type": "address"
        },
        {
          "internalType": "uint256",
          "name": "tokenId",
          "type": "uint256"
        },
        {
          "internalType": "bytes",
          "name": "_data",
          "type": "bytes"
        }
      ],
      "name": "safeTransferFrom",
      "outputs": [],
      "stateMutability": "nonpayable",
      "type": "function"
    },
    {
      "inputs": [
        {
          "internalType": "address",
          "name": "operator",
          "type": "address"
        },
        {
          "internalType": "bool",
          "name": "approved",
          "type": "bool"
        }
      ],
      "name": "setApprovalForAll",
      "outputs": [],
      "stateMutability": "nonpayable",
      "type": "function"
    },
    {
      "inputs": [
        {
          "internalType": "bytes4",
          "name": "interfaceId",
          "type": "bytes4"
        }
      ],
      "name": "supportsInterface",
      "outputs": [
        {
          "internalType": "bool",
          "name": "",
          "type": "bool"
        }
      ],
      "stateMutability": "view",
      "type": "function"
    },
    {
      "inputs": [],
      "name": "symbol",
      "outputs": [
        {
          "internalType": "string",
          "name": "",
          "type": "string"
        }
      ],
      "stateMutability": "view",
      "type": "function"
    },
    {
      "inputs": [
        {
          "internalType": "uint256",
          "name": "index",
          "type": "uint256"
        }
      ],
      "name": "tokenByIndex",
      "outputs": [
        {
          "internalType": "uint256",
          "name": "",
          "type": "uint256"
        }
      ],
      "stateMutability": "view",
      "type": "function"
    },
    {
      "inputs": [
        {
          "internalType": "address",
          "name": "owner",
          "type": "address"
        },
        {
          "internalType": "uint256",
          "name": "index",
          "type": "uint256"
        }
      ],
      "name": "tokenOfOwnerByIndex",
      "outputs": [
        {
          "internalType": "uint256",
          "name": "",
          "type": "uint256"
        }
      ],
      "stateMutability": "view",
      "type": "function"
    },
    {
      "inputs": [
        {
          "internalType": "uint256",
          "name": "tokenId",
          "type": "uint256"
        }
      ],
      "name": "tokenURI",
      "outputs": [
        {
          "internalType": "string",
          "name": "",
          "type": "string"
        }
      ],
      "stateMutability": "view",
      "type": "function"
    },
    {
      "inputs": [],
      "name": "totalSupply",
      "outputs": [
        {
          "internalType": "uint256",
          "name": "",
          "type": "uint256"
        }
      ],
      "stateMutability": "view",
      "type": "function"
    },
    {
      "inputs": [
        {
          "internalType": "address",
          "name": "from",
          "type": "address"
        },
        {
          "internalType": "address",
          "name": "to",
          "type": "address"
        },
        {
          "internalType": "uint256",
          "name": "tokenId",
          "type": "uint256"
        }
      ],
      "name": "transferFrom",
      "outputs": [],
      "stateMutability": "nonpayable",
      "type": "function"
    },
    {
      "inputs": [
        {
          "internalType": "string",
          "name": "_name",
          "type": "string"
        },
        {
          "internalType": "string",
          "name": "_description",
          "type": "string"
        },
        {
          "internalType": "string",
          "name": "_url",
          "type": "string"
        },
        {
          "internalType": "uint256",
          "name": "_price",
          "type": "uint256"
        },
        {
          "internalType": "string",
          "name": "_hash",
          "type": "string"
        }
      ],
      "name": "mint",
      "outputs": [
        {
          "internalType": "uint256",
          "name": "",
          "type": "uint256"
        }
      ],
      "stateMutability": "nonpayable",
      "type": "function"
    },
    {
      "inputs": [
        {
          "internalType": "address",
          "name": "_to",
          "type": "address"
        },
        {
          "internalType": "uint256",
          "name": "_tokenId",
          "type": "uint256"
        }
      ],
      "name": "approveNFT",
      "outputs": [],
      "stateMutability": "nonpayable",
      "type": "function"
    },
    {
      "inputs": [
        {
          "internalType": "address",
          "name": "_address",
          "type": "address"
        },
        {
          "internalType": "uint256",
          "name": "_tokenId",
          "type": "uint256"
        }
      ],
      "name": "isApprovedOrOwner",
      "outputs": [
        {
          "internalType": "bool",
          "name": "",
          "type": "bool"
        }
      ],
      "stateMutability": "nonpayable",
      "type": "function"
    },
    {
      "inputs": [
        {
          "internalType": "uint256",
          "name": "_id",
          "type": "uint256"
        },
        {
          "internalType": "uint256",
          "name": "_price",
          "type": "uint256"
        }
      ],
      "name": "updatePrice",
      "outputs": [
        {
          "internalType": "bool",
          "name": "",
          "type": "bool"
        }
      ],
      "stateMutability": "nonpayable",
      "type": "function"
    },
    {
      "inputs": [
        {
          "internalType": "address",
          "name": "_to",
          "type": "address"
        },
        {
          "internalType": "uint256",
          "name": "_tokenId",
          "type": "uint256"
        },
        {
          "internalType": "uint256",
          "name": "_price",
          "type": "uint256"
        }
      ],
      "name": "approveForSale",
      "outputs": [],
      "stateMutability": "nonpayable",
      "type": "function"
    },
    {
      "inputs": [
        {
          "internalType": "address",
          "name": "_to",
          "type": "address"
        },
        {
          "internalType": "uint256",
          "name": "_tokenId",
          "type": "uint256"
        },
        {
          "internalType": "uint256",
          "name": "_price",
          "type": "uint256"
        },
        {
          "internalType": "uint256",
          "name": "_time",
          "type": "uint256"
        }
      ],
      "name": "approveForAuction",
      "outputs": [],
      "stateMutability": "nonpayable",
      "type": "function"
    },
    {
      "inputs": [
        {
          "internalType": "uint256",
          "name": "_tokenId",
          "type": "uint256"
        }
      ],
      "name": "nftSold",
      "outputs": [],
      "stateMutability": "nonpayable",
      "type": "function"
    }
  ],
  "bytecode": "0x60806040523480156200001157600080fd5b506040518060400160405280600981526020017f496d6167655f4e465400000000000000000000000000000000000000000000008152506040518060400160405280600381526020017f494d470000000000000000000000000000000000000000000000000000000000815250816000908051906020019062000096929190620000b8565b508060019080519060200190620000af929190620000b8565b505050620001cd565b828054620000c69062000197565b90600052602060002090601f016020900481019282620000ea576000855562000136565b82601f106200010557805160ff191683800117855562000136565b8280016001018555821562000136579182015b828111156200013557825182559160200191906001019062000118565b5b50905062000145919062000149565b5090565b5b80821115620001645760008160009055506001016200014a565b5090565b7f4e487b7100000000000000000000000000000000000000000000000000000000600052602260045260246000fd5b60006002820490506001821680620001b057607f821691505b60208210811415620001c757620001c662000168565b5b50919050565b613cf180620001dd6000396000f3fe608060405234801561001057600080fd5b50600436106101735760003560e01c80634f6ccce7116100de5780639600dd8311610097578063c83e488e11610071578063c83e488e14610496578063c87b56dd146104c6578063e985e9c5146104f6578063fbd4bae11461052657610173565b80639600dd8314610442578063a22cb4651461045e578063b88d4fde1461047a57610173565b80634f6ccce7146103345780636352211e1461036457806370a082311461039457806382367b2d146103c457806384856482146103f457806395d89b411461042457610173565b806318160ddd1161013057806318160ddd1461026257806323b872dd146102805780632f745c591461029c57806341160d47146102cc57806342842e0e146102e8578063430c20811461030457610173565b806301ffc9a714610178578063061ba2f1146101a857806306fdde03146101dc578063081812fc146101fa578063095ea7b31461022a57806316875c1114610246575b600080fd5b610192600480360381019061018d9190612783565b610542565b60405161019f91906127cb565b60405180910390f35b6101c260048036038101906101bd919061281c565b6105bc565b6040516101d39594939291906128f1565b60405180910390f35b6101e4610812565b6040516101f19190612960565b60405180910390f35b610214600480360381019061020f919061281c565b6108a4565b60405161022191906129c3565b60405180910390f35b610244600480360381019061023f9190612a0a565b610929565b005b610260600480360381019061025b919061281c565b610a41565b005b61026a610a9c565b6040516102779190612a4a565b60405180910390f35b61029a60048036038101906102959190612a65565b610aa9565b005b6102b660048036038101906102b19190612a0a565b610b09565b6040516102c39190612a4a565b60405180910390f35b6102e660048036038101906102e19190612ab8565b610bae565b005b61030260048036038101906102fd9190612a65565b610c63565b005b61031e60048036038101906103199190612a0a565b610c83565b60405161032b91906127cb565b60405180910390f35b61034e6004803603810190610349919061281c565b610c97565b60405161035b9190612a4a565b60405180910390f35b61037e6004803603810190610379919061281c565b610d08565b60405161038b91906129c3565b60405180910390f35b6103ae60048036038101906103a99190612b1f565b610dba565b6040516103bb9190612a4a565b60405180910390f35b6103de60048036038101906103d99190612b4c565b610e72565b6040516103eb91906127cb565b60405180910390f35b61040e6004803603810190610409919061281c565b610ed9565b60405161041b9190612960565b60405180910390f35b61042c610f85565b6040516104399190612960565b60405180910390f35b61045c60048036038101906104579190612a0a565b611017565b005b61047860048036038101906104739190612bb8565b611025565b005b610494600480360381019061048f9190612d2d565b6111a6565b005b6104b060048036038101906104ab9190612e51565b611208565b6040516104bd9190612a4a565b60405180910390f35b6104e060048036038101906104db919061281c565b611418565b6040516104ed9190612960565b60405180910390f35b610510600480360381019061050b9190612f3c565b61156a565b60405161051d91906127cb565b60405180910390f35b610540600480360381019061053b9190612f7c565b6115fe565b005b60007f780e9d63000000000000000000000000000000000000000000000000000000007bffffffffffffffffffffffffffffffffffffffffffffffffffffffff1916827bffffffffffffffffffffffffffffffffffffffffffffffffffffffff191614806105b557506105b482611675565b5b9050919050565b600c6020528060005260406000206000915090508060000180546105df90612ffe565b80601f016020809104026020016040519081016040528092919081815260200182805461060b90612ffe565b80156106585780601f1061062d57610100808354040283529160200191610658565b820191906000526020600020905b81548152906001019060200180831161063b57829003601f168201915b50505050509080600101805461066d90612ffe565b80601f016020809104026020016040519081016040528092919081815260200182805461069990612ffe565b80156106e65780601f106106bb576101008083540402835291602001916106e6565b820191906000526020600020905b8154815290600101906020018083116106c957829003601f168201915b5050505050908060020180546106fb90612ffe565b80601f016020809104026020016040519081016040528092919081815260200182805461072790612ffe565b80156107745780601f1061074957610100808354040283529160200191610774565b820191906000526020600020905b81548152906001019060200180831161075757829003601f168201915b50505050509080600301549080600401805461078f90612ffe565b80601f01602080910402602001604051908101604052809291908181526020018280546107bb90612ffe565b80156108085780601f106107dd57610100808354040283529160200191610808565b820191906000526020600020905b8154815290600101906020018083116107eb57829003601f168201915b5050505050905085565b60606000805461082190612ffe565b80601f016020809104026020016040519081016040528092919081815260200182805461084d90612ffe565b801561089a5780601f1061086f5761010080835404028352916020019161089a565b820191906000526020600020905b81548152906001019060200180831161087d57829003601f168201915b5050505050905090565b60006108af82611757565b6108ee576040517f08c379a00000000000000000000000000000000000000000000000000000000081526004016108e5906130a2565b60405180910390fd5b6004600083815260200190815260200160002060009054906101000a900473ffffffffffffffffffffffffffffffffffffffff169050919050565b600061093482610d08565b90508073ffffffffffffffffffffffffffffffffffffffff168373ffffffffffffffffffffffffffffffffffffffff1614156109a5576040517f08c379a000000000000000000000000000000000000000000000000000000000815260040161099c90613134565b60405180910390fd5b8073ffffffffffffffffffffffffffffffffffffffff166109c46117c3565b73ffffffffffffffffffffffffffffffffffffffff1614806109f357506109f2816109ed6117c3565b61156a565b5b610a32576040517f08c379a0000000000000000000000000000000000000000000000000000000008152600401610a29906131c6565b60405180910390fd5b610a3c83836117cb565b505050565b6000600f600083815260200190815260200160002060006101000a81548160ff0219169083151502179055506000600e600083815260200190815260200160002060006101000a81548160ff02191690831515021790555050565b6000600880549050905090565b610aba610ab46117c3565b82611884565b610af9576040517f08c379a0000000000000000000000000000000000000000000000000000000008152600401610af090613258565b60405180910390fd5b610b04838383611962565b505050565b6000610b1483610dba565b8210610b55576040517f08c379a0000000000000000000000000000000000000000000000000000000008152600401610b4c906132ea565b60405180910390fd5b600660008473ffffffffffffffffffffffffffffffffffffffff1673ffffffffffffffffffffffffffffffffffffffff168152602001908152602001600020600083815260200190815260200160002054905092915050565b60001515600f600085815260200190815260200160002060009054906101000a900460ff16151514610bdf57600080fd5b6001600e600085815260200190815260200160002060006101000a81548160ff021916908315150217905550610c158484611017565b610c1d61262b565b8281600001818152505081816020018181525050806010600086815260200190815260200160002060008201518160000155602082015181600101559050505050505050565b610c7e838383604051806020016040528060008152506111a6565b505050565b6000610c8f8383611884565b905092915050565b6000610ca1610a9c565b8210610ce2576040517f08c379a0000000000000000000000000000000000000000000000000000000008152600401610cd99061337c565b60405180910390fd5b60088281548110610cf657610cf561339c565b5b90600052602060002001549050919050565b6000806002600084815260200190815260200160002060009054906101000a900473ffffffffffffffffffffffffffffffffffffffff169050600073ffffffffffffffffffffffffffffffffffffffff168173ffffffffffffffffffffffffffffffffffffffff161415610db1576040517f08c379a0000000000000000000000000000000000000000000000000000000008152600401610da89061343d565b60405180910390fd5b80915050919050565b60008073ffffffffffffffffffffffffffffffffffffffff168273ffffffffffffffffffffffffffffffffffffffff161415610e2b576040517f08c379a0000000000000000000000000000000000000000000000000000000008152600401610e22906134cf565b60405180910390fd5b600360008373ffffffffffffffffffffffffffffffffffffffff1673ffffffffffffffffffffffffffffffffffffffff168152602001908152602001600020549050919050565b60003373ffffffffffffffffffffffffffffffffffffffff16610e9484610d08565b73ffffffffffffffffffffffffffffffffffffffff1614610eb457600080fd5b81600c6000858152602001908152602001600020600301819055506001905092915050565b600b8181548110610ee957600080fd5b906000526020600020016000915090508054610f0490612ffe565b80601f0160208091040260200160405190810160405280929190818152602001828054610f3090612ffe565b8015610f7d5780601f10610f5257610100808354040283529160200191610f7d565b820191906000526020600020905b815481529060010190602001808311610f6057829003601f168201915b505050505081565b606060018054610f9490612ffe565b80601f0160208091040260200160405190810160405280929190818152602001828054610fc090612ffe565b801561100d5780601f10610fe25761010080835404028352916020019161100d565b820191906000526020600020905b815481529060010190602001808311610ff057829003601f168201915b5050505050905090565b6110218282610929565b5050565b61102d6117c3565b73ffffffffffffffffffffffffffffffffffffffff168273ffffffffffffffffffffffffffffffffffffffff16141561109b576040517f08c379a00000000000000000000000000000000000000000000000000000000081526004016110929061353b565b60405180910390fd5b80600560006110a86117c3565b73ffffffffffffffffffffffffffffffffffffffff1673ffffffffffffffffffffffffffffffffffffffff16815260200190815260200160002060008473ffffffffffffffffffffffffffffffffffffffff1673ffffffffffffffffffffffffffffffffffffffff16815260200190815260200160002060006101000a81548160ff0219169083151502179055508173ffffffffffffffffffffffffffffffffffffffff166111556117c3565b73ffffffffffffffffffffffffffffffffffffffff167f17307eab39ab6107e8899845ad3d59bd9653f200f220920489ca2b5937696c318360405161119a91906127cb565b60405180910390a35050565b6111b76111b16117c3565b83611884565b6111f6576040517f08c379a00000000000000000000000000000000000000000000000000000000081526004016111ed90613258565b60405180910390fd5b61120284848484611bbe565b50505050565b6000600d8460405161121a9190613597565b908152602001604051809103902060009054906101000a900460ff161561124057600080fd5b600d826040516112509190613597565b908152602001604051809103902060009054906101000a900460ff16156112ac576040517f08c379a00000000000000000000000000000000000000000000000000000000081526004016112a3906135fa565b60405180910390fd5b6112b4612645565b86816000018190525085816020018190525084816040018190525083816060018181525050828160800181905250600b8390806001815401808255809150506001900390600052602060002001600090919091909150908051906020019061131d929190612674565b5060006001600b805490506113329190613649565b905081600c60008381526020019081526020016000206000820151816000019080519060200190611364929190612674565b506020820151816001019080519060200190611381929190612674565b50604082015181600201908051906020019061139e929190612674565b506060820151816003015560808201518160040190805190602001906113c5929190612674565b509050506113d33382611c1a565b6001600d856040516113e59190613597565b908152602001604051809103902060006101000a81548160ff021916908315150217905550809250505095945050505050565b606061142382611757565b611462576040517f08c379a0000000000000000000000000000000000000000000000000000000008152600401611459906136ef565b60405180910390fd5b6000600a6000848152602001908152602001600020805461148290612ffe565b80601f01602080910402602001604051908101604052809291908181526020018280546114ae90612ffe565b80156114fb5780601f106114d0576101008083540402835291602001916114fb565b820191906000526020600020905b8154815290600101906020018083116114de57829003601f168201915b50505050509050600061150c611de8565b9050600081511415611522578192505050611565565b60008251111561155757808260405160200161153f92919061370f565b60405160208183030381529060405292505050611565565b61156084611dff565b925050505b919050565b6000600560008473ffffffffffffffffffffffffffffffffffffffff1673ffffffffffffffffffffffffffffffffffffffff16815260200190815260200160002060008373ffffffffffffffffffffffffffffffffffffffff1673ffffffffffffffffffffffffffffffffffffffff16815260200190815260200160002060009054906101000a900460ff16905092915050565b60001515600e600084815260200190815260200160002060009054906101000a900460ff1615151461162f57600080fd5b6001600f600084815260200190815260200160002060006101000a81548160ff0219169083151502179055506116658282610e72565b506116708383611017565b505050565b60007f80ac58cd000000000000000000000000000000000000000000000000000000007bffffffffffffffffffffffffffffffffffffffffffffffffffffffff1916827bffffffffffffffffffffffffffffffffffffffffffffffffffffffff1916148061174057507f5b5e139f000000000000000000000000000000000000000000000000000000007bffffffffffffffffffffffffffffffffffffffffffffffffffffffff1916827bffffffffffffffffffffffffffffffffffffffffffffffffffffffff1916145b80611750575061174f82611ea6565b5b9050919050565b60008073ffffffffffffffffffffffffffffffffffffffff166002600084815260200190815260200160002060009054906101000a900473ffffffffffffffffffffffffffffffffffffffff1673ffffffffffffffffffffffffffffffffffffffff1614159050919050565b600033905090565b816004600083815260200190815260200160002060006101000a81548173ffffffffffffffffffffffffffffffffffffffff021916908373ffffffffffffffffffffffffffffffffffffffff160217905550808273ffffffffffffffffffffffffffffffffffffffff1661183e83610d08565b73ffffffffffffffffffffffffffffffffffffffff167f8c5be1e5ebec7d5bd14f71427d1e84f3dd0314c0f7b2291e5b200ac8c7c3b92560405160405180910390a45050565b600061188f82611757565b6118ce576040517f08c379a00000000000000000000000000000000000000000000000000000000081526004016118c5906137a5565b60405180910390fd5b60006118d983610d08565b90508073ffffffffffffffffffffffffffffffffffffffff168473ffffffffffffffffffffffffffffffffffffffff16148061194857508373ffffffffffffffffffffffffffffffffffffffff16611930846108a4565b73ffffffffffffffffffffffffffffffffffffffff16145b806119595750611958818561156a565b5b91505092915050565b8273ffffffffffffffffffffffffffffffffffffffff1661198282610d08565b73ffffffffffffffffffffffffffffffffffffffff16146119d8576040517f08c379a00000000000000000000000000000000000000000000000000000000081526004016119cf90613837565b60405180910390fd5b600073ffffffffffffffffffffffffffffffffffffffff168273ffffffffffffffffffffffffffffffffffffffff161415611a48576040517f08c379a0000000000000000000000000000000000000000000000000000000008152600401611a3f906138c9565b60405180910390fd5b611a53838383611f10565b611a5e6000826117cb565b6001600360008573ffffffffffffffffffffffffffffffffffffffff1673ffffffffffffffffffffffffffffffffffffffff1681526020019081526020016000206000828254611aae9190613649565b925050819055506001600360008473ffffffffffffffffffffffffffffffffffffffff1673ffffffffffffffffffffffffffffffffffffffff1681526020019081526020016000206000828254611b0591906138e9565b92505081905550816002600083815260200190815260200160002060006101000a81548173ffffffffffffffffffffffffffffffffffffffff021916908373ffffffffffffffffffffffffffffffffffffffff160217905550808273ffffffffffffffffffffffffffffffffffffffff168473ffffffffffffffffffffffffffffffffffffffff167fddf252ad1be2c89b69c2b068fc378daa952ba7f163c4a11628f55a4df523b3ef60405160405180910390a4505050565b611bc9848484611962565b611bd584848484612024565b611c14576040517f08c379a0000000000000000000000000000000000000000000000000000000008152600401611c0b906139b1565b60405180910390fd5b50505050565b600073ffffffffffffffffffffffffffffffffffffffff168273ffffffffffffffffffffffffffffffffffffffff161415611c8a576040517f08c379a0000000000000000000000000000000000000000000000000000000008152600401611c8190613a1d565b60405180910390fd5b611c9381611757565b15611cd3576040517f08c379a0000000000000000000000000000000000000000000000000000000008152600401611cca906135fa565b60405180910390fd5b611cdf60008383611f10565b6001600360008473ffffffffffffffffffffffffffffffffffffffff1673ffffffffffffffffffffffffffffffffffffffff1681526020019081526020016000206000828254611d2f91906138e9565b92505081905550816002600083815260200190815260200160002060006101000a81548173ffffffffffffffffffffffffffffffffffffffff021916908373ffffffffffffffffffffffffffffffffffffffff160217905550808273ffffffffffffffffffffffffffffffffffffffff16600073ffffffffffffffffffffffffffffffffffffffff167fddf252ad1be2c89b69c2b068fc378daa952ba7f163c4a11628f55a4df523b3ef60405160405180910390a45050565b606060405180602001604052806000815250905090565b6060611e0a82611757565b611e49576040517f08c379a0000000000000000000000000000000000000000000000000000000008152600401611e4090613aaf565b60405180910390fd5b6000611e53611de8565b90506000815111611e735760405180602001604052806000815250611e9e565b80611e7d846121ac565b604051602001611e8e92919061370f565b6040516020818303038152906040525b915050919050565b60007f01ffc9a7000000000000000000000000000000000000000000000000000000007bffffffffffffffffffffffffffffffffffffffffffffffffffffffff1916827bffffffffffffffffffffffffffffffffffffffffffffffffffffffff1916149050919050565b611f1b83838361230d565b600073ffffffffffffffffffffffffffffffffffffffff168373ffffffffffffffffffffffffffffffffffffffff161415611f5e57611f5981612312565b611f9d565b8173ffffffffffffffffffffffffffffffffffffffff168373ffffffffffffffffffffffffffffffffffffffff1614611f9c57611f9b838261235b565b5b5b600073ffffffffffffffffffffffffffffffffffffffff168273ffffffffffffffffffffffffffffffffffffffff161415611fe057611fdb816124c8565b61201f565b8273ffffffffffffffffffffffffffffffffffffffff168273ffffffffffffffffffffffffffffffffffffffff161461201e5761201d8282612599565b5b5b505050565b60006120458473ffffffffffffffffffffffffffffffffffffffff16612618565b1561219f578373ffffffffffffffffffffffffffffffffffffffff1663150b7a0261206e6117c3565b8786866040518563ffffffff1660e01b81526004016120909493929190613b24565b6020604051808303816000875af19250505080156120cc57506040513d601f19601f820116820180604052508101906120c99190613b85565b60015b61214f573d80600081146120fc576040519150601f19603f3d011682016040523d82523d6000602084013e612101565b606091505b50600081511415612147576040517f08c379a000000000000000000000000000000000000000000000000000000000815260040161213e906139b1565b60405180910390fd5b805181602001fd5b63150b7a0260e01b7bffffffffffffffffffffffffffffffffffffffffffffffffffffffff1916817bffffffffffffffffffffffffffffffffffffffffffffffffffffffff1916149150506121a4565b600190505b949350505050565b606060008214156121f4576040518060400160405280600181526020017f30000000000000000000000000000000000000000000000000000000000000008152509050612308565b600082905060005b6000821461222657808061220f90613bb2565b915050600a8261221f9190613c2a565b91506121fc565b60008167ffffffffffffffff81111561224257612241612c02565b5b6040519080825280601f01601f1916602001820160405280156122745781602001600182028036833780820191505090505b5090505b600085146123015760018261228d9190613649565b9150600a8561229c9190613c5b565b60306122a891906138e9565b60f81b8183815181106122be576122bd61339c565b5b60200101907effffffffffffffffffffffffffffffffffffffffffffffffffffffffffffff1916908160001a905350600a856122fa9190613c2a565b9450612278565b8093505050505b919050565b505050565b6008805490506009600083815260200190815260200160002081905550600881908060018154018082558091505060019003906000526020600020016000909190919091505550565b6000600161236884610dba565b6123729190613649565b9050600060076000848152602001908152602001600020549050818114612457576000600660008673ffffffffffffffffffffffffffffffffffffffff1673ffffffffffffffffffffffffffffffffffffffff168152602001908152602001600020600084815260200190815260200160002054905080600660008773ffffffffffffffffffffffffffffffffffffffff1673ffffffffffffffffffffffffffffffffffffffff168152602001908152602001600020600084815260200190815260200160002081905550816007600083815260200190815260200160002081905550505b6007600084815260200190815260200160002060009055600660008573ffffffffffffffffffffffffffffffffffffffff1673ffffffffffffffffffffffffffffffffffffffff16815260200190815260200160002060008381526020019081526020016000206000905550505050565b600060016008805490506124dc9190613649565b905060006009600084815260200190815260200160002054905060006008838154811061250c5761250b61339c565b5b90600052602060002001549050806008838154811061252e5761252d61339c565b5b90600052602060002001819055508160096000838152602001908152602001600020819055506009600085815260200190815260200160002060009055600880548061257d5761257c613c8c565b5b6001900381819060005260206000200160009055905550505050565b60006125a483610dba565b905081600660008573ffffffffffffffffffffffffffffffffffffffff1673ffffffffffffffffffffffffffffffffffffffff168152602001908152602001600020600083815260200190815260200160002081905550806007600084815260200190815260200160002081905550505050565b600080823b905060008111915050919050565b604051806040016040528060008152602001600081525090565b6040518060a0016040528060608152602001606081526020016060815260200160008152602001606081525090565b82805461268090612ffe565b90600052602060002090601f0160209004810192826126a257600085556126e9565b82601f106126bb57805160ff19168380011785556126e9565b828001600101855582156126e9579182015b828111156126e85782518255916020019190600101906126cd565b5b5090506126f691906126fa565b5090565b5b808211156127135760008160009055506001016126fb565b5090565b6000604051905090565b600080fd5b600080fd5b60007fffffffff0000000000000000000000000000000000000000000000000000000082169050919050565b6127608161272b565b811461276b57600080fd5b50565b60008135905061277d81612757565b92915050565b60006020828403121561279957612798612721565b5b60006127a78482850161276e565b91505092915050565b60008115159050919050565b6127c5816127b0565b82525050565b60006020820190506127e060008301846127bc565b92915050565b6000819050919050565b6127f9816127e6565b811461280457600080fd5b50565b600081359050612816816127f0565b92915050565b60006020828403121561283257612831612721565b5b600061284084828501612807565b91505092915050565b600081519050919050565b600082825260208201905092915050565b60005b83811015612883578082015181840152602081019050612868565b83811115612892576000848401525b50505050565b6000601f19601f8301169050919050565b60006128b482612849565b6128be8185612854565b93506128ce818560208601612865565b6128d781612898565b840191505092915050565b6128eb816127e6565b82525050565b600060a082019050818103600083015261290b81886128a9565b9050818103602083015261291f81876128a9565b9050818103604083015261293381866128a9565b905061294260608301856128e2565b818103608083015261295481846128a9565b90509695505050505050565b6000602082019050818103600083015261297a81846128a9565b905092915050565b600073ffffffffffffffffffffffffffffffffffffffff82169050919050565b60006129ad82612982565b9050919050565b6129bd816129a2565b82525050565b60006020820190506129d860008301846129b4565b92915050565b6129e7816129a2565b81146129f257600080fd5b50565b600081359050612a04816129de565b92915050565b60008060408385031215612a2157612a20612721565b5b6000612a2f858286016129f5565b9250506020612a4085828601612807565b9150509250929050565b6000602082019050612a5f60008301846128e2565b92915050565b600080600060608486031215612a7e57612a7d612721565b5b6000612a8c868287016129f5565b9350506020612a9d868287016129f5565b9250506040612aae86828701612807565b9150509250925092565b60008060008060808587031215612ad257612ad1612721565b5b6000612ae0878288016129f5565b9450506020612af187828801612807565b9350506040612b0287828801612807565b9250506060612b1387828801612807565b91505092959194509250565b600060208284031215612b3557612b34612721565b5b6000612b43848285016129f5565b91505092915050565b60008060408385031215612b6357612b62612721565b5b6000612b7185828601612807565b9250506020612b8285828601612807565b9150509250929050565b612b95816127b0565b8114612ba057600080fd5b50565b600081359050612bb281612b8c565b92915050565b60008060408385031215612bcf57612bce612721565b5b6000612bdd858286016129f5565b9250506020612bee85828601612ba3565b9150509250929050565b600080fd5b600080fd5b7f4e487b7100000000000000000000000000000000000000000000000000000000600052604160045260246000fd5b612c3a82612898565b810181811067ffffffffffffffff82111715612c5957612c58612c02565b5b80604052505050565b6000612c6c612717565b9050612c788282612c31565b919050565b600067ffffffffffffffff821115612c9857612c97612c02565b5b612ca182612898565b9050602081019050919050565b82818337600083830152505050565b6000612cd0612ccb84612c7d565b612c62565b905082815260208101848484011115612cec57612ceb612bfd565b5b612cf7848285612cae565b509392505050565b600082601f830112612d1457612d13612bf8565b5b8135612d24848260208601612cbd565b91505092915050565b60008060008060808587031215612d4757612d46612721565b5b6000612d55878288016129f5565b9450506020612d66878288016129f5565b9350506040612d7787828801612807565b925050606085013567ffffffffffffffff811115612d9857612d97612726565b5b612da487828801612cff565b91505092959194509250565b600067ffffffffffffffff821115612dcb57612dca612c02565b5b612dd482612898565b9050602081019050919050565b6000612df4612def84612db0565b612c62565b905082815260208101848484011115612e1057612e0f612bfd565b5b612e1b848285612cae565b509392505050565b600082601f830112612e3857612e37612bf8565b5b8135612e48848260208601612de1565b91505092915050565b600080600080600060a08688031215612e6d57612e6c612721565b5b600086013567ffffffffffffffff811115612e8b57612e8a612726565b5b612e9788828901612e23565b955050602086013567ffffffffffffffff811115612eb857612eb7612726565b5b612ec488828901612e23565b945050604086013567ffffffffffffffff811115612ee557612ee4612726565b5b612ef188828901612e23565b9350506060612f0288828901612807565b925050608086013567ffffffffffffffff811115612f2357612f22612726565b5b612f2f88828901612e23565b9150509295509295909350565b60008060408385031215612f5357612f52612721565b5b6000612f61858286016129f5565b9250506020612f72858286016129f5565b9150509250929050565b600080600060608486031215612f9557612f94612721565b5b6000612fa3868287016129f5565b9350506020612fb486828701612807565b9250506040612fc586828701612807565b9150509250925092565b7f4e487b7100000000000000000000000000000000000000000000000000000000600052602260045260246000fd5b6000600282049050600182168061301657607f821691505b6020821081141561302a57613029612fcf565b5b50919050565b7f4552433732313a20617070726f76656420717565727920666f72206e6f6e657860008201527f697374656e7420746f6b656e0000000000000000000000000000000000000000602082015250565b600061308c602c83612854565b915061309782613030565b604082019050919050565b600060208201905081810360008301526130bb8161307f565b9050919050565b7f4552433732313a20617070726f76616c20746f2063757272656e74206f776e6560008201527f7200000000000000000000000000000000000000000000000000000000000000602082015250565b600061311e602183612854565b9150613129826130c2565b604082019050919050565b6000602082019050818103600083015261314d81613111565b9050919050565b7f4552433732313a20617070726f76652063616c6c6572206973206e6f74206f7760008201527f6e6572206e6f7220617070726f76656420666f7220616c6c0000000000000000602082015250565b60006131b0603883612854565b91506131bb82613154565b604082019050919050565b600060208201905081810360008301526131df816131a3565b9050919050565b7f4552433732313a207472616e736665722063616c6c6572206973206e6f74206f60008201527f776e6572206e6f7220617070726f766564000000000000000000000000000000602082015250565b6000613242603183612854565b915061324d826131e6565b604082019050919050565b6000602082019050818103600083015261327181613235565b9050919050565b7f455243373231456e756d657261626c653a206f776e657220696e646578206f7560008201527f74206f6620626f756e6473000000000000000000000000000000000000000000602082015250565b60006132d4602b83612854565b91506132df82613278565b604082019050919050565b60006020820190508181036000830152613303816132c7565b9050919050565b7f455243373231456e756d657261626c653a20676c6f62616c20696e646578206f60008201527f7574206f6620626f756e64730000000000000000000000000000000000000000602082015250565b6000613366602c83612854565b91506133718261330a565b604082019050919050565b6000602082019050818103600083015261339581613359565b9050919050565b7f4e487b7100000000000000000000000000000000000000000000000000000000600052603260045260246000fd5b7f4552433732313a206f776e657220717565727920666f72206e6f6e657869737460008201527f656e7420746f6b656e0000000000000000000000000000000000000000000000602082015250565b6000613427602983612854565b9150613432826133cb565b604082019050919050565b600060208201905081810360008301526134568161341a565b9050919050565b7f4552433732313a2062616c616e636520717565727920666f7220746865207a6560008201527f726f206164647265737300000000000000000000000000000000000000000000602082015250565b60006134b9602a83612854565b91506134c48261345d565b604082019050919050565b600060208201905081810360008301526134e8816134ac565b9050919050565b7f4552433732313a20617070726f766520746f2063616c6c657200000000000000600082015250565b6000613525601983612854565b9150613530826134ef565b602082019050919050565b6000602082019050818103600083015261355481613518565b9050919050565b600081905092915050565b600061357182612849565b61357b818561355b565b935061358b818560208601612865565b80840191505092915050565b60006135a38284613566565b915081905092915050565b7f4552433732313a20746f6b656e20616c7265616479206d696e74656400000000600082015250565b60006135e4601c83612854565b91506135ef826135ae565b602082019050919050565b60006020820190508181036000830152613613816135d7565b9050919050565b7f4e487b7100000000000000000000000000000000000000000000000000000000600052601160045260246000fd5b6000613654826127e6565b915061365f836127e6565b9250828210156136725761367161361a565b5b828203905092915050565b7f45524337323155524953746f726167653a2055524920717565727920666f722060008201527f6e6f6e6578697374656e7420746f6b656e000000000000000000000000000000602082015250565b60006136d9603183612854565b91506136e48261367d565b604082019050919050565b60006020820190508181036000830152613708816136cc565b9050919050565b600061371b8285613566565b91506137278284613566565b91508190509392505050565b7f4552433732313a206f70657261746f7220717565727920666f72206e6f6e657860008201527f697374656e7420746f6b656e0000000000000000000000000000000000000000602082015250565b600061378f602c83612854565b915061379a82613733565b604082019050919050565b600060208201905081810360008301526137be81613782565b9050919050565b7f4552433732313a207472616e73666572206f6620746f6b656e2074686174206960008201527f73206e6f74206f776e0000000000000000000000000000000000000000000000602082015250565b6000613821602983612854565b915061382c826137c5565b604082019050919050565b6000602082019050818103600083015261385081613814565b9050919050565b7f4552433732313a207472616e7366657220746f20746865207a65726f2061646460008201527f7265737300000000000000000000000000000000000000000000000000000000602082015250565b60006138b3602483612854565b91506138be82613857565b604082019050919050565b600060208201905081810360008301526138e2816138a6565b9050919050565b60006138f4826127e6565b91506138ff836127e6565b9250827fffffffffffffffffffffffffffffffffffffffffffffffffffffffffffffffff038211156139345761393361361a565b5b828201905092915050565b7f4552433732313a207472616e7366657220746f206e6f6e20455243373231526560008201527f63656976657220696d706c656d656e7465720000000000000000000000000000602082015250565b600061399b603283612854565b91506139a68261393f565b604082019050919050565b600060208201905081810360008301526139ca8161398e565b9050919050565b7f4552433732313a206d696e7420746f20746865207a65726f2061646472657373600082015250565b6000613a07602083612854565b9150613a12826139d1565b602082019050919050565b60006020820190508181036000830152613a36816139fa565b9050919050565b7f4552433732314d657461646174613a2055524920717565727920666f72206e6f60008201527f6e6578697374656e7420746f6b656e0000000000000000000000000000000000602082015250565b6000613a99602f83612854565b9150613aa482613a3d565b604082019050919050565b60006020820190508181036000830152613ac881613a8c565b9050919050565b600081519050919050565b600082825260208201905092915050565b6000613af682613acf565b613b008185613ada565b9350613b10818560208601612865565b613b1981612898565b840191505092915050565b6000608082019050613b3960008301876129b4565b613b4660208301866129b4565b613b5360408301856128e2565b8181036060830152613b658184613aeb565b905095945050505050565b600081519050613b7f81612757565b92915050565b600060208284031215613b9b57613b9a612721565b5b6000613ba984828501613b70565b91505092915050565b6000613bbd826127e6565b91507fffffffffffffffffffffffffffffffffffffffffffffffffffffffffffffffff821415613bf057613bef61361a565b5b600182019050919050565b7f4e487b7100000000000000000000000000000000000000000000000000000000600052601260045260246000fd5b6000613c35826127e6565b9150613c40836127e6565b925082613c5057613c4f613bfb565b5b828204905092915050565b6000613c66826127e6565b9150613c71836127e6565b925082613c8157613c80613bfb565b5b828206905092915050565b7f4e487b7100000000000000000000000000000000000000000000000000000000600052603160045260246000fdfea26469706673582212201b0c4a019365c9e85fe43e24b27b5df466081c47af570e6033891b06457c619c64736f6c634300080b0033",
  "immutableReferences": {},
  "source": "pragma solidity >0.5.0;\r\n\r\nimport \"../openzeppelin/token/ERC721/extensions/ERC721Full.sol\";\r\nimport \"../openzeppelin/token/ERC721/extensions/IERC721Metadata.sol\";\r\n\r\ncontract ImageContract is IERC721Metadata, ERC721Full {\r\n    /**\r\n    2021-11-15    string hash  \r\n   */\r\n    struct metadata {\r\n        string name;\r\n        string description;\r\n        string url;\r\n        uint256 price;\r\n        string token;\r\n    }\r\n\r\n    string[] public images;\r\n    mapping(uint256 => metadata) public imageData;\r\n    mapping(string => bool) _imageExists;\r\n\r\n    mapping(uint256 => bool) _listedForAuction;\r\n    mapping(uint256 => bool) _listedForSale;\r\n\r\n    struct auctionData {\r\n        uint256 price;\r\n        uint256 time;\r\n    }\r\n    mapping(uint256 => auctionData) tokenAuction;\r\n\r\n    constructor() public ERC721(\"Image_NFT\", \"IMG\") {}\r\n\r\n    /**\r\n    upate : 2021-11-15\r\n    metadata  hash      \r\n   */\r\n    function mint(\r\n        string memory _name,\r\n        string memory _description,\r\n        string memory _url,\r\n        uint256 _price,\r\n        string memory _hash\r\n    ) public returns (uint256) {\r\n        require(!_imageExists[_url]);\r\n        require(!_imageExists[_hash], \"ERC721: token already minted\");\r\n        metadata memory md;\r\n        md.name = _name;\r\n        md.description = _description;\r\n        md.url = _url;\r\n        md.price = _price;\r\n        md.token = _hash; //hash   \r\n\r\n        //images.push(_url); //_url        \r\n        images.push(_hash); //_hash    \r\n        uint256 _id = images.length - 1;\r\n        imageData[_id] = md;\r\n        _mint(msg.sender, _id);\r\n        //_imageExists[_url] = true;  //_url        \r\n        _imageExists[_hash] = true; //_hash    \r\n\r\n        return _id;\r\n    }\r\n\r\n    function approveNFT(address _to, uint256 _tokenId) public {\r\n        approve(_to, _tokenId);\r\n    }\r\n\r\n    function isApprovedOrOwner(address _address, uint256 _tokenId)\r\n        public\r\n        returns (bool)\r\n    {\r\n        return _isApprovedOrOwner(_address, _tokenId);\r\n    }\r\n\r\n    function updatePrice(uint256 _id, uint256 _price) public returns (bool) {\r\n        require(ownerOf(_id) == msg.sender);\r\n        imageData[_id].price = _price;\r\n\r\n        return true;\r\n    }\r\n\r\n    function approveForSale(\r\n        address _to,\r\n        uint256 _tokenId,\r\n        uint256 _price\r\n    ) public {\r\n        require(_listedForAuction[_tokenId] == false);\r\n        _listedForSale[_tokenId] = true;\r\n        updatePrice(_tokenId, _price);\r\n        approveNFT(_to, _tokenId);\r\n    }\r\n\r\n    function approveForAuction(\r\n        address _to,\r\n        uint256 _tokenId,\r\n        uint256 _price,\r\n        uint256 _time\r\n    ) public {\r\n        require(_listedForSale[_tokenId] == false);\r\n        _listedForAuction[_tokenId] = true;\r\n        // updatePrice(_tokenId, _price);\r\n        approveNFT(_to, _tokenId);\r\n\r\n        auctionData memory ad;\r\n        ad.price = _price;\r\n        ad.time = _time;\r\n\r\n        tokenAuction[_tokenId] = ad;\r\n    }\r\n\r\n    function nftSold(uint256 _tokenId) public {\r\n        _listedForSale[_tokenId] = false;\r\n        _listedForAuction[_tokenId] = false;\r\n    }\r\n}\r\n",
  "sourcePath": "D:\\Projects\\jintech-NFT-marketplace\\src\\contracts\\ImageContract.sol",
  "compiler": {
    "name": "solc",
    "version": "0.8.11+commit.d7f03943.Emscripten.clang"
  },
  "schemaVersion": "3.4.3",
  "updatedAt": "2022-01-04T06:48:28.635Z",
  "devdoc": {
    "kind": "dev",
    "methods": {
      "approve(address,uint256)": {
        "details": "See {IERC721-approve}."
      },
      "balanceOf(address)": {
        "details": "See {IERC721-balanceOf}."
      },
      "getApproved(uint256)": {
        "details": "See {IERC721-getApproved}."
      },
      "isApprovedForAll(address,address)": {
        "details": "See {IERC721-isApprovedForAll}."
      },
      "name()": {
        "details": "See {IERC721Metadata-name}."
      },
      "ownerOf(uint256)": {
        "details": "See {IERC721-ownerOf}."
      },
      "safeTransferFrom(address,address,uint256)": {
        "details": "See {IERC721-safeTransferFrom}."
      },
      "safeTransferFrom(address,address,uint256,bytes)": {
        "details": "See {IERC721-safeTransferFrom}."
      },
      "setApprovalForAll(address,bool)": {
        "details": "See {IERC721-setApprovalForAll}."
      },
      "supportsInterface(bytes4)": {
        "details": "See {IERC165-supportsInterface}."
      },
      "symbol()": {
        "details": "See {IERC721Metadata-symbol}."
      },
      "tokenByIndex(uint256)": {
        "details": "See {IERC721Enumerable-tokenByIndex}."
      },
      "tokenOfOwnerByIndex(address,uint256)": {
        "details": "See {IERC721Enumerable-tokenOfOwnerByIndex}."
      },
      "tokenURI(uint256)": {
        "details": "See {IERC721Metadata-tokenURI}."
      },
      "totalSupply()": {
        "details": "See {IERC721Enumerable-totalSupply}."
      },
      "transferFrom(address,address,uint256)": {
        "details": "See {IERC721-transferFrom}."
      }
    },
    "version": 1
  },
  "userdoc": {
    "kind": "user",
    "methods": {
      "mint(string,string,string,uint256,string)": {
        "notice": "upate : 2021-11-15 metadata  hash      "
      }
    },
    "version": 1
  }
}