{
  "contractName": "ImageSaleContract",
  "abi": [
    {
      "inputs": [
        {
          "internalType": "contract ImageContract",
          "name": "_imageContract",
          "type": "address"
        }
      ],
      "stateMutability": "nonpayable",
      "type": "constructor"
    },
    {
      "anonymous": false,
      "inputs": [
        {
          "indexed": false,
          "internalType": "uint256",
          "name": "_tokenId",
          "type": "uint256"
        },
        {
          "indexed": false,
          "internalType": "address",
          "name": "_buyer",
          "type": "address"
        },
        {
          "indexed": false,
          "internalType": "uint256",
          "name": "_price",
          "type": "uint256"
        }
      ],
      "name": "BoughtNFT",
      "type": "event"
    },
    {
      "inputs": [],
      "name": "imageContract",
      "outputs": [
        {
          "internalType": "contract ImageContract",
          "name": "",
          "type": "address"
        }
      ],
      "stateMutability": "view",
      "type": "function"
    },
    {
      "inputs": [
        {
          "internalType": "address",
          "name": "_owner",
          "type": "address"
        },
        {
          "internalType": "uint256",
          "name": "_tokenId",
          "type": "uint256"
        },
        {
          "internalType": "uint256",
          "name": "_price",
          "type": "uint256"
        }
      ],
      "name": "buyImage",
      "outputs": [],
      "stateMutability": "payable",
      "type": "function"
    },
    {
      "inputs": [
        {
          "internalType": "address",
          "name": "_owner",
          "type": "address"
        },
        {
          "internalType": "uint256",
          "name": "_tokenId",
          "type": "uint256"
        },
        {
          "internalType": "uint256",
          "name": "_price",
          "type": "uint256"
        }
      ],
      "name": "bid",
      "outputs": [],
      "stateMutability": "payable",
      "type": "function"
    }
  ],
  "bytecode": "0x608060405234801561001057600080fd5b5060405161072b38038061072b8339818101604052810190610032919061012e565b306000806101000a81548173ffffffffffffffffffffffffffffffffffffffff021916908373ffffffffffffffffffffffffffffffffffffffff16021790555080600160006101000a81548173ffffffffffffffffffffffffffffffffffffffff021916908373ffffffffffffffffffffffffffffffffffffffff1602179055505061015b565b600080fd5b600073ffffffffffffffffffffffffffffffffffffffff82169050919050565b60006100e9826100be565b9050919050565b60006100fb826100de565b9050919050565b61010b816100f0565b811461011657600080fd5b50565b60008151905061012881610102565b92915050565b600060208284031215610144576101436100b9565b5b600061015284828501610119565b91505092915050565b6105c18061016a6000396000f3fe6080604052600436106100345760003560e01c80630f41ba4b146100395780635d135d2c14610055578063ce6c178814610080575b600080fd5b610053600480360381019061004e9190610417565b61009c565b005b34801561006157600080fd5b5061006a6101fa565b60405161007791906104c9565b60405180910390f35b61009a60048036038101906100959190610417565b610220565b005b600160009054906101000a900473ffffffffffffffffffffffffffffffffffffffff1673ffffffffffffffffffffffffffffffffffffffff166323b872dd8433856040518463ffffffff1660e01b81526004016100fb93929190610502565b600060405180830381600087803b15801561011557600080fd5b505af1158015610129573d6000803e3d6000fd5b50505050600160009054906101000a900473ffffffffffffffffffffffffffffffffffffffff1673ffffffffffffffffffffffffffffffffffffffff166316875c11836040518263ffffffff1660e01b81526004016101889190610539565b600060405180830381600087803b1580156101a257600080fd5b505af11580156101b6573d6000803e3d6000fd5b505050507fb6a905095cc0da6554868381c57c41a8a986dbee5b595c4921562f0bfc29c16b8233836040516101ed93929190610554565b60405180910390a1505050565b600160009054906101000a900473ffffffffffffffffffffffffffffffffffffffff1681565b600160009054906101000a900473ffffffffffffffffffffffffffffffffffffffff1673ffffffffffffffffffffffffffffffffffffffff166323b872dd8433856040518463ffffffff1660e01b815260040161027f93929190610502565b600060405180830381600087803b15801561029957600080fd5b505af11580156102ad573d6000803e3d6000fd5b50505050600160009054906101000a900473ffffffffffffffffffffffffffffffffffffffff1673ffffffffffffffffffffffffffffffffffffffff166316875c11836040518263ffffffff1660e01b815260040161030c9190610539565b600060405180830381600087803b15801561032657600080fd5b505af115801561033a573d6000803e3d6000fd5b505050507fb6a905095cc0da6554868381c57c41a8a986dbee5b595c4921562f0bfc29c16b82338360405161037193929190610554565b60405180910390a1505050565b600080fd5b600073ffffffffffffffffffffffffffffffffffffffff82169050919050565b60006103ae82610383565b9050919050565b6103be816103a3565b81146103c957600080fd5b50565b6000813590506103db816103b5565b92915050565b6000819050919050565b6103f4816103e1565b81146103ff57600080fd5b50565b600081359050610411816103eb565b92915050565b6000806000606084860312156104305761042f61037e565b5b600061043e868287016103cc565b935050602061044f86828701610402565b925050604061046086828701610402565b9150509250925092565b6000819050919050565b600061048f61048a61048584610383565b61046a565b610383565b9050919050565b60006104a182610474565b9050919050565b60006104b382610496565b9050919050565b6104c3816104a8565b82525050565b60006020820190506104de60008301846104ba565b92915050565b6104ed816103a3565b82525050565b6104fc816103e1565b82525050565b600060608201905061051760008301866104e4565b61052460208301856104e4565b61053160408301846104f3565b949350505050565b600060208201905061054e60008301846104f3565b92915050565b600060608201905061056960008301866104f3565b61057660208301856104e4565b61058360408301846104f3565b94935050505056fea2646970667358221220491fbd77f3dd681f5db04f16f391d6953b1d2b0114eedb70337acfad55d04f1564736f6c634300080b0033",
  "immutableReferences": {},
  "source": "pragma solidity >0.5.0;\r\n\r\nimport \"./ImageContract.sol\";\r\n\r\ncontract ImageSaleContract {\r\n\r\n    address admin;\r\n    ImageContract public imageContract;\r\n\r\n    event BoughtNFT(uint256 _tokenId, address _buyer, uint256 _price);\r\n\r\n    constructor(ImageContract _imageContract) public {\r\n        admin = address(this);\r\n        imageContract = _imageContract;\r\n    }\r\n\r\n    function buyImage(address _owner, uint256 _tokenId, uint256 _price) public payable {\r\n        imageContract.transferFrom(_owner, msg.sender, _tokenId);\r\n        imageContract.nftSold(_tokenId);\r\n        emit BoughtNFT(_tokenId, msg.sender, _price);\r\n    }\r\n\r\n    function bid(address _owner, uint256 _tokenId, uint256 _price) public payable {\r\n        imageContract.transferFrom(_owner, msg.sender, _tokenId);\r\n        imageContract.nftSold(_tokenId);\r\n        emit BoughtNFT(_tokenId, msg.sender, _price);\r\n    }\r\n\r\n}",
  "sourcePath": "D:\\Projects\\jintech-NFT-marketplace\\src\\contracts\\ImageSaleContract.sol",
  "compiler": {
    "name": "solc",
    "version": "0.8.11+commit.d7f03943.Emscripten.clang"
  },
  "schemaVersion": "3.4.3",
  "updatedAt": "2022-01-04T06:48:28.740Z",
  "devdoc": {
    "kind": "dev",
    "methods": {},
    "version": 1
  },
  "userdoc": {
    "kind": "user",
    "methods": {},
    "version": 1
  }
}