{
  "contractName": "TokenSaleContract",
  "abi": [
    {
      "inputs": [
        {
          "internalType": "contract TokenContract",
          "name": "_tokenContract",
          "type": "address"
        },
        {
          "internalType": "uint256",
          "name": "_tokenPrice",
          "type": "uint256"
        }
      ],
      "stateMutability": "nonpayable",
      "type": "constructor"
    },
    {
      "anonymous": false,
      "inputs": [
        {
          "indexed": false,
          "internalType": "address",
          "name": "_buyer",
          "type": "address"
        },
        {
          "indexed": false,
          "internalType": "uint256",
          "name": "_amount",
          "type": "uint256"
        }
      ],
      "name": "Sell",
      "type": "event"
    },
    {
      "inputs": [],
      "name": "tokenContract",
      "outputs": [
        {
          "internalType": "contract TokenContract",
          "name": "",
          "type": "address"
        }
      ],
      "stateMutability": "view",
      "type": "function"
    },
    {
      "inputs": [],
      "name": "tokenPrice",
      "outputs": [
        {
          "internalType": "uint256",
          "name": "",
          "type": "uint256"
        }
      ],
      "stateMutability": "view",
      "type": "function"
    },
    {
      "inputs": [],
      "name": "tokensSold",
      "outputs": [
        {
          "internalType": "uint256",
          "name": "",
          "type": "uint256"
        }
      ],
      "stateMutability": "view",
      "type": "function"
    },
    {
      "inputs": [
        {
          "internalType": "uint256",
          "name": "_numberOfTokens",
          "type": "uint256"
        }
      ],
      "name": "buyTokens",
      "outputs": [],
      "stateMutability": "payable",
      "type": "function"
    },
    {
      "inputs": [],
      "name": "balanceTokens",
      "outputs": [
        {
          "internalType": "uint256",
          "name": "",
          "type": "uint256"
        }
      ],
      "stateMutability": "nonpayable",
      "type": "function"
    }
  ],
  "bytecode": "0x60806040523480156200001157600080fd5b5060405162000a2438038062000a2483398181016040528101906200003791906200020e565b306000806101000a81548173ffffffffffffffffffffffffffffffffffffffff021916908373ffffffffffffffffffffffffffffffffffffffff16021790555081600160006101000a81548173ffffffffffffffffffffffffffffffffffffffff021916908373ffffffffffffffffffffffffffffffffffffffff160217905550806002819055508173ffffffffffffffffffffffffffffffffffffffff166340c10f193069d3c21bcecceda10000006040518363ffffffff1660e01b815260040162000106929190620002b3565b6020604051808303816000875af115801562000126573d6000803e3d6000fd5b505050506040513d601f19601f820116820180604052508101906200014c91906200031d565b5050506200034f565b600080fd5b600073ffffffffffffffffffffffffffffffffffffffff82169050919050565b600062000187826200015a565b9050919050565b60006200019b826200017a565b9050919050565b620001ad816200018e565b8114620001b957600080fd5b50565b600081519050620001cd81620001a2565b92915050565b6000819050919050565b620001e881620001d3565b8114620001f457600080fd5b50565b6000815190506200020881620001dd565b92915050565b6000806040838503121562000228576200022762000155565b5b60006200023885828601620001bc565b92505060206200024b85828601620001f7565b9150509250929050565b62000260816200017a565b82525050565b6000819050919050565b6000819050919050565b60006200029b620002956200028f8462000266565b62000270565b620001d3565b9050919050565b620002ad816200027a565b82525050565b6000604082019050620002ca600083018562000255565b620002d96020830184620002a2565b9392505050565b60008115159050919050565b620002f781620002e0565b81146200030357600080fd5b50565b6000815190506200031781620002ec565b92915050565b60006020828403121562000336576200033562000155565b5b6000620003468482850162000306565b91505092915050565b6106c5806200035f6000396000f3fe60806040526004361061004a5760003560e01c80633610724e1461004f578063518ab2a81461006b57806355a373d6146100965780637ff9b596146100c1578063e4494a0f146100ec575b600080fd5b6100696004803603810190610064919061040d565b610117565b005b34801561007757600080fd5b506100806102dd565b60405161008d9190610449565b60405180910390f35b3480156100a257600080fd5b506100ab6102e3565b6040516100b891906104e3565b60405180910390f35b3480156100cd57600080fd5b506100d6610309565b6040516100e39190610449565b60405180910390f35b3480156100f857600080fd5b5061010161030f565b60405161010e9190610449565b60405180910390f35b80600160009054906101000a900473ffffffffffffffffffffffffffffffffffffffff1673ffffffffffffffffffffffffffffffffffffffff166370a0823160008054906101000a900473ffffffffffffffffffffffffffffffffffffffff166040518263ffffffff1660e01b8152600401610193919061051f565b602060405180830381865afa1580156101b0573d6000803e3d6000fd5b505050506040513d601f19601f820116820180604052508101906101d4919061054f565b10156101df57600080fd5b600160009054906101000a900473ffffffffffffffffffffffffffffffffffffffff1673ffffffffffffffffffffffffffffffffffffffff1663a9059cbb33836040518363ffffffff1660e01b815260040161023c92919061057c565b6020604051808303816000875af115801561025b573d6000803e3d6000fd5b505050506040513d601f19601f8201168201806040525081019061027f91906105dd565b61028857600080fd5b806003600082825461029a9190610639565b925050819055507f5e5e995ce3133561afceaa51a9a154d5db228cd7525d34df5185582c18d3df0933826040516102d292919061057c565b60405180910390a150565b60035481565b600160009054906101000a900473ffffffffffffffffffffffffffffffffffffffff1681565b60025481565b6000600160009054906101000a900473ffffffffffffffffffffffffffffffffffffffff1673ffffffffffffffffffffffffffffffffffffffff166370a0823160008054906101000a900473ffffffffffffffffffffffffffffffffffffffff166040518263ffffffff1660e01b815260040161038c919061051f565b602060405180830381865afa1580156103a9573d6000803e3d6000fd5b505050506040513d601f19601f820116820180604052508101906103cd919061054f565b905090565b600080fd5b6000819050919050565b6103ea816103d7565b81146103f557600080fd5b50565b600081359050610407816103e1565b92915050565b600060208284031215610423576104226103d2565b5b6000610431848285016103f8565b91505092915050565b610443816103d7565b82525050565b600060208201905061045e600083018461043a565b92915050565b600073ffffffffffffffffffffffffffffffffffffffff82169050919050565b6000819050919050565b60006104a96104a461049f84610464565b610484565b610464565b9050919050565b60006104bb8261048e565b9050919050565b60006104cd826104b0565b9050919050565b6104dd816104c2565b82525050565b60006020820190506104f860008301846104d4565b92915050565b600061050982610464565b9050919050565b610519816104fe565b82525050565b60006020820190506105346000830184610510565b92915050565b600081519050610549816103e1565b92915050565b600060208284031215610565576105646103d2565b5b60006105738482850161053a565b91505092915050565b60006040820190506105916000830185610510565b61059e602083018461043a565b9392505050565b60008115159050919050565b6105ba816105a5565b81146105c557600080fd5b50565b6000815190506105d7816105b1565b92915050565b6000602082840312156105f3576105f26103d2565b5b6000610601848285016105c8565b91505092915050565b7f4e487b7100000000000000000000000000000000000000000000000000000000600052601160045260246000fd5b6000610644826103d7565b915061064f836103d7565b9250827fffffffffffffffffffffffffffffffffffffffffffffffffffffffffffffffff038211156106845761068361060a565b5b82820190509291505056fea2646970667358221220b9a696ecad0dc07251c724d20f745da3e3aceb8600fec7186be81d4e6af2ecf564736f6c634300080b0033",
  "immutableReferences": {},
  "source": "pragma solidity >0.5.0;\r\n\r\nimport \"./TokenContract.sol\";\r\n\r\ncontract TokenSaleContract {\r\n    address admin;\r\n    TokenContract public tokenContract;\r\n    uint256 public tokenPrice;\r\n    uint256 public tokensSold;\r\n\r\n    event Sell(address _buyer, uint256 _amount);\r\n\r\n    constructor(TokenContract _tokenContract, uint256 _tokenPrice) public {\r\n        admin = address(this);\r\n        tokenContract = _tokenContract;\r\n        tokenPrice = _tokenPrice;\r\n\r\n        _tokenContract.mint(address(this), 1000000000000000000000000);\r\n    }\r\n\r\n    // function multiply(uint x, uint y) internal pure returns (uint z) {\r\n    //     require(y == 0 || (z = x * y) / y == x);\r\n    // }\r\n\r\n    function buyTokens(uint256 _numberOfTokens) public payable {\r\n        // require(msg.value == multiply(_numberOfTokens, tokenPrice));\r\n        require(tokenContract.balanceOf(admin) >= _numberOfTokens);\r\n        require(tokenContract.transfer(msg.sender, _numberOfTokens));\r\n        tokensSold += _numberOfTokens;\r\n        emit Sell(msg.sender, _numberOfTokens);\r\n    }\r\n\r\n    function balanceTokens() public returns (uint) {\r\n        return tokenContract.balanceOf(admin);\r\n    }\r\n\r\n}",
  "sourcePath": "D:\\Projects\\jintech-NFT-marketplace\\src\\contracts\\TokenSaleContract.sol",
  "compiler": {
    "name": "solc",
    "version": "0.8.11+commit.d7f03943.Emscripten.clang"
  },
  "schemaVersion": "3.4.3",
  "updatedAt": "2022-01-04T06:48:28.796Z",
  "devdoc": {
    "kind": "dev",
    "methods": {},
    "version": 1
  },
  "userdoc": {
    "kind": "user",
    "methods": {},
    "version": 1
  }
}