{
  "contractName": "ImageContract",
  "abi": [
    {
      "inputs": [],
      "stateMutability": "nonpayable",
      "type": "constructor"
    },
    {
      "anonymous": false,
      "inputs": [
        {
          "indexed": true,
          "internalType": "address",
          "name": "owner",
          "type": "address"
        },
        {
          "indexed": true,
          "internalType": "address",
          "name": "approved",
          "type": "address"
        },
        {
          "indexed": true,
          "internalType": "uint256",
          "name": "tokenId",
          "type": "uint256"
        }
      ],
      "name": "Approval",
      "type": "event"
    },
    {
      "anonymous": false,
      "inputs": [
        {
          "indexed": true,
          "internalType": "address",
          "name": "owner",
          "type": "address"
        },
        {
          "indexed": true,
          "internalType": "address",
          "name": "operator",
          "type": "address"
        },
        {
          "indexed": false,
          "internalType": "bool",
          "name": "approved",
          "type": "bool"
        }
      ],
      "name": "ApprovalForAll",
      "type": "event"
    },
    {
      "anonymous": false,
      "inputs": [
        {
          "indexed": true,
          "internalType": "address",
          "name": "from",
          "type": "address"
        },
        {
          "indexed": true,
          "internalType": "address",
          "name": "to",
          "type": "address"
        },
        {
          "indexed": true,
          "internalType": "uint256",
          "name": "tokenId",
          "type": "uint256"
        }
      ],
      "name": "Transfer",
      "type": "event"
    },
    {
      "inputs": [
        {
          "internalType": "address",
          "name": "to",
          "type": "address"
        },
        {
          "internalType": "uint256",
          "name": "tokenId",
          "type": "uint256"
        }
      ],
      "name": "approve",
      "outputs": [],
      "stateMutability": "nonpayable",
      "type": "function"
    },
    {
      "inputs": [
        {
          "internalType": "address",
          "name": "owner",
          "type": "address"
        }
      ],
      "name": "balanceOf",
      "outputs": [
        {
          "internalType": "uint256",
          "name": "",
          "type": "uint256"
        }
      ],
      "stateMutability": "view",
      "type": "function",
      "constant": true
    },
    {
      "inputs": [
        {
          "internalType": "uint256",
          "name": "tokenId",
          "type": "uint256"
        }
      ],
      "name": "getApproved",
      "outputs": [
        {
          "internalType": "address",
          "name": "",
          "type": "address"
        }
      ],
      "stateMutability": "view",
      "type": "function",
      "constant": true
    },
    {
      "inputs": [
        {
          "internalType": "uint256",
          "name": "",
          "type": "uint256"
        }
      ],
      "name": "imageData",
      "outputs": [
        {
          "internalType": "string",
          "name": "name",
          "type": "string"
        },
        {
          "internalType": "string",
          "name": "description",
          "type": "string"
        },
        {
          "internalType": "string",
          "name": "url",
          "type": "string"
        },
        {
          "internalType": "uint256",
          "name": "price",
          "type": "uint256"
        },
        {
          "internalType": "string",
          "name": "token",
          "type": "string"
        }
      ],
      "stateMutability": "view",
      "type": "function",
      "constant": true
    },
    {
      "inputs": [
        {
          "internalType": "uint256",
          "name": "",
          "type": "uint256"
        }
      ],
      "name": "images",
      "outputs": [
        {
          "internalType": "string",
          "name": "",
          "type": "string"
        }
      ],
      "stateMutability": "view",
      "type": "function",
      "constant": true
    },
    {
      "inputs": [
        {
          "internalType": "address",
          "name": "owner",
          "type": "address"
        },
        {
          "internalType": "address",
          "name": "operator",
          "type": "address"
        }
      ],
      "name": "isApprovedForAll",
      "outputs": [
        {
          "internalType": "bool",
          "name": "",
          "type": "bool"
        }
      ],
      "stateMutability": "view",
      "type": "function",
      "constant": true
    },
    {
      "inputs": [],
      "name": "name",
      "outputs": [
        {
          "internalType": "string",
          "name": "",
          "type": "string"
        }
      ],
      "stateMutability": "view",
      "type": "function",
      "constant": true
    },
    {
      "inputs": [
        {
          "internalType": "uint256",
          "name": "tokenId",
          "type": "uint256"
        }
      ],
      "name": "ownerOf",
      "outputs": [
        {
          "internalType": "address",
          "name": "",
          "type": "address"
        }
      ],
      "stateMutability": "view",
      "type": "function",
      "constant": true
    },
    {
      "inputs": [
        {
          "internalType": "address",
          "name": "from",
          "type": "address"
        },
        {
          "internalType": "address",
          "name": "to",
          "type": "address"
        },
        {
          "internalType": "uint256",
          "name": "tokenId",
          "type": "uint256"
        }
      ],
      "name": "safeTransferFrom",
      "outputs": [],
      "stateMutability": "nonpayable",
      "type": "function"
    },
    {
      "inputs": [
        {
          "internalType": "address",
          "name": "from",
          "type": "address"
        },
        {
          "internalType": "address",
          "name": "to",
          "type": "address"
        },
        {
          "internalType": "uint256",
          "name": "tokenId",
          "type": "uint256"
        },
        {
          "internalType": "bytes",
          "name": "_data",
          "type": "bytes"
        }
      ],
      "name": "safeTransferFrom",
      "outputs": [],
      "stateMutability": "nonpayable",
      "type": "function"
    },
    {
      "inputs": [
        {
          "internalType": "address",
          "name": "operator",
          "type": "address"
        },
        {
          "internalType": "bool",
          "name": "approved",
          "type": "bool"
        }
      ],
      "name": "setApprovalForAll",
      "outputs": [],
      "stateMutability": "nonpayable",
      "type": "function"
    },
    {
      "inputs": [
        {
          "internalType": "bytes4",
          "name": "interfaceId",
          "type": "bytes4"
        }
      ],
      "name": "supportsInterface",
      "outputs": [
        {
          "internalType": "bool",
          "name": "",
          "type": "bool"
        }
      ],
      "stateMutability": "view",
      "type": "function",
      "constant": true
    },
    {
      "inputs": [],
      "name": "symbol",
      "outputs": [
        {
          "internalType": "string",
          "name": "",
          "type": "string"
        }
      ],
      "stateMutability": "view",
      "type": "function",
      "constant": true
    },
    {
      "inputs": [
        {
          "internalType": "uint256",
          "name": "index",
          "type": "uint256"
        }
      ],
      "name": "tokenByIndex",
      "outputs": [
        {
          "internalType": "uint256",
          "name": "",
          "type": "uint256"
        }
      ],
      "stateMutability": "view",
      "type": "function",
      "constant": true
    },
    {
      "inputs": [
        {
          "internalType": "address",
          "name": "owner",
          "type": "address"
        },
        {
          "internalType": "uint256",
          "name": "index",
          "type": "uint256"
        }
      ],
      "name": "tokenOfOwnerByIndex",
      "outputs": [
        {
          "internalType": "uint256",
          "name": "",
          "type": "uint256"
        }
      ],
      "stateMutability": "view",
      "type": "function",
      "constant": true
    },
    {
      "inputs": [
        {
          "internalType": "uint256",
          "name": "tokenId",
          "type": "uint256"
        }
      ],
      "name": "tokenURI",
      "outputs": [
        {
          "internalType": "string",
          "name": "",
          "type": "string"
        }
      ],
      "stateMutability": "view",
      "type": "function",
      "constant": true
    },
    {
      "inputs": [],
      "name": "totalSupply",
      "outputs": [
        {
          "internalType": "uint256",
          "name": "",
          "type": "uint256"
        }
      ],
      "stateMutability": "view",
      "type": "function",
      "constant": true
    },
    {
      "inputs": [
        {
          "internalType": "address",
          "name": "from",
          "type": "address"
        },
        {
          "internalType": "address",
          "name": "to",
          "type": "address"
        },
        {
          "internalType": "uint256",
          "name": "tokenId",
          "type": "uint256"
        }
      ],
      "name": "transferFrom",
      "outputs": [],
      "stateMutability": "nonpayable",
      "type": "function"
    },
    {
      "inputs": [
        {
          "internalType": "string",
          "name": "_name",
          "type": "string"
        },
        {
          "internalType": "string",
          "name": "_description",
          "type": "string"
        },
        {
          "internalType": "string",
          "name": "_url",
          "type": "string"
        },
        {
          "internalType": "uint256",
          "name": "_price",
          "type": "uint256"
        },
        {
          "internalType": "string",
          "name": "_hash",
          "type": "string"
        }
      ],
      "name": "mint",
      "outputs": [
        {
          "internalType": "uint256",
          "name": "",
          "type": "uint256"
        }
      ],
      "stateMutability": "nonpayable",
      "type": "function"
    },
    {
      "inputs": [
        {
          "internalType": "address",
          "name": "_to",
          "type": "address"
        },
        {
          "internalType": "uint256",
          "name": "_tokenId",
          "type": "uint256"
        }
      ],
      "name": "approveNFT",
      "outputs": [],
      "stateMutability": "nonpayable",
      "type": "function"
    },
    {
      "inputs": [
        {
          "internalType": "address",
          "name": "_address",
          "type": "address"
        },
        {
          "internalType": "uint256",
          "name": "_tokenId",
          "type": "uint256"
        }
      ],
      "name": "isApprovedOrOwner",
      "outputs": [
        {
          "internalType": "bool",
          "name": "",
          "type": "bool"
        }
      ],
      "stateMutability": "nonpayable",
      "type": "function"
    },
    {
      "inputs": [
        {
          "internalType": "uint256",
          "name": "_id",
          "type": "uint256"
        },
        {
          "internalType": "uint256",
          "name": "_price",
          "type": "uint256"
        }
      ],
      "name": "updatePrice",
      "outputs": [
        {
          "internalType": "bool",
          "name": "",
          "type": "bool"
        }
      ],
      "stateMutability": "nonpayable",
      "type": "function"
    },
    {
      "inputs": [
        {
          "internalType": "address",
          "name": "_to",
          "type": "address"
        },
        {
          "internalType": "uint256",
          "name": "_tokenId",
          "type": "uint256"
        },
        {
          "internalType": "uint256",
          "name": "_price",
          "type": "uint256"
        }
      ],
      "name": "approveForSale",
      "outputs": [],
      "stateMutability": "nonpayable",
      "type": "function"
    },
    {
      "inputs": [
        {
          "internalType": "address",
          "name": "_to",
          "type": "address"
        },
        {
          "internalType": "uint256",
          "name": "_tokenId",
          "type": "uint256"
        },
        {
          "internalType": "uint256",
          "name": "_price",
          "type": "uint256"
        },
        {
          "internalType": "uint256",
          "name": "_time",
          "type": "uint256"
        }
      ],
      "name": "approveForAuction",
      "outputs": [],
      "stateMutability": "nonpayable",
      "type": "function"
    },
    {
      "inputs": [
        {
          "internalType": "uint256",
          "name": "_tokenId",
          "type": "uint256"
        }
      ],
      "name": "nftSold",
      "outputs": [],
      "stateMutability": "nonpayable",
      "type": "function"
    }
  ],
  "bytecode": "0x60806040523480156200001157600080fd5b506040518060400160405280600981526020017f496d6167655f4e465400000000000000000000000000000000000000000000008152506040518060400160405280600381526020017f494d470000000000000000000000000000000000000000000000000000000000815250816000908051906020019062000096929190620000b8565b508060019080519060200190620000af929190620000b8565b505050620001cd565b828054620000c69062000197565b90600052602060002090601f016020900481019282620000ea576000855562000136565b82601f106200010557805160ff191683800117855562000136565b8280016001018555821562000136579182015b828111156200013557825182559160200191906001019062000118565b5b50905062000145919062000149565b5090565b5b80821115620001645760008160009055506001016200014a565b5090565b7f4e487b7100000000000000000000000000000000000000000000000000000000600052602260045260246000fd5b60006002820490506001821680620001b057607f821691505b60208210811415620001c757620001c662000168565b5b50919050565b613c8580620001dd6000396000f3fe608060405234801561001057600080fd5b50600436106101735760003560e01c80634f6ccce7116100de5780639600dd8311610097578063c83e488e11610071578063c83e488e14610496578063c87b56dd146104c6578063e985e9c5146104f6578063fbd4bae11461052657610173565b80639600dd8314610442578063a22cb4651461045e578063b88d4fde1461047a57610173565b80634f6ccce7146103345780636352211e1461036457806370a082311461039457806382367b2d146103c457806384856482146103f457806395d89b411461042457610173565b806318160ddd1161013057806318160ddd1461026257806323b872dd146102805780632f745c591461029c57806341160d47146102cc57806342842e0e146102e8578063430c20811461030457610173565b806301ffc9a714610178578063061ba2f1146101a857806306fdde03146101dc578063081812fc146101fa578063095ea7b31461022a57806316875c1114610246575b600080fd5b610192600480360381019061018d9190612717565b610542565b60405161019f919061275f565b60405180910390f35b6101c260048036038101906101bd91906127b0565b6105bc565b6040516101d3959493929190612885565b60405180910390f35b6101e4610812565b6040516101f191906128f4565b60405180910390f35b610214600480360381019061020f91906127b0565b6108a4565b6040516102219190612957565b60405180910390f35b610244600480360381019061023f919061299e565b610929565b005b610260600480360381019061025b91906127b0565b610a41565b005b61026a610a9c565b60405161027791906129de565b60405180910390f35b61029a600480360381019061029591906129f9565b610aa9565b005b6102b660048036038101906102b1919061299e565b610b09565b6040516102c391906129de565b60405180910390f35b6102e660048036038101906102e19190612a4c565b610bae565b005b61030260048036038101906102fd91906129f9565b610c63565b005b61031e6004803603810190610319919061299e565b610c83565b60405161032b919061275f565b60405180910390f35b61034e600480360381019061034991906127b0565b610c97565b60405161035b91906129de565b60405180910390f35b61037e600480360381019061037991906127b0565b610d08565b60405161038b9190612957565b60405180910390f35b6103ae60048036038101906103a99190612ab3565b610dba565b6040516103bb91906129de565b60405180910390f35b6103de60048036038101906103d99190612ae0565b610e72565b6040516103eb919061275f565b60405180910390f35b61040e600480360381019061040991906127b0565b610ed9565b60405161041b91906128f4565b60405180910390f35b61042c610f85565b60405161043991906128f4565b60405180910390f35b61045c6004803603810190610457919061299e565b611017565b005b61047860048036038101906104739190612b4c565b611025565b005b610494600480360381019061048f9190612cc1565b6111a6565b005b6104b060048036038101906104ab9190612de5565b611208565b6040516104bd91906129de565b60405180910390f35b6104e060048036038101906104db91906127b0565b6113ac565b6040516104ed91906128f4565b60405180910390f35b610510600480360381019061050b9190612ed0565b6114fe565b60405161051d919061275f565b60405180910390f35b610540600480360381019061053b9190612f10565b611592565b005b60007f780e9d63000000000000000000000000000000000000000000000000000000007bffffffffffffffffffffffffffffffffffffffffffffffffffffffff1916827bffffffffffffffffffffffffffffffffffffffffffffffffffffffff191614806105b557506105b482611609565b5b9050919050565b600c6020528060005260406000206000915090508060000180546105df90612f92565b80601f016020809104026020016040519081016040528092919081815260200182805461060b90612f92565b80156106585780601f1061062d57610100808354040283529160200191610658565b820191906000526020600020905b81548152906001019060200180831161063b57829003601f168201915b50505050509080600101805461066d90612f92565b80601f016020809104026020016040519081016040528092919081815260200182805461069990612f92565b80156106e65780601f106106bb576101008083540402835291602001916106e6565b820191906000526020600020905b8154815290600101906020018083116106c957829003601f168201915b5050505050908060020180546106fb90612f92565b80601f016020809104026020016040519081016040528092919081815260200182805461072790612f92565b80156107745780601f1061074957610100808354040283529160200191610774565b820191906000526020600020905b81548152906001019060200180831161075757829003601f168201915b50505050509080600301549080600401805461078f90612f92565b80601f01602080910402602001604051908101604052809291908181526020018280546107bb90612f92565b80156108085780601f106107dd57610100808354040283529160200191610808565b820191906000526020600020905b8154815290600101906020018083116107eb57829003601f168201915b5050505050905085565b60606000805461082190612f92565b80601f016020809104026020016040519081016040528092919081815260200182805461084d90612f92565b801561089a5780601f1061086f5761010080835404028352916020019161089a565b820191906000526020600020905b81548152906001019060200180831161087d57829003601f168201915b5050505050905090565b60006108af826116eb565b6108ee576040517f08c379a00000000000000000000000000000000000000000000000000000000081526004016108e590613036565b60405180910390fd5b6004600083815260200190815260200160002060009054906101000a900473ffffffffffffffffffffffffffffffffffffffff169050919050565b600061093482610d08565b90508073ffffffffffffffffffffffffffffffffffffffff168373ffffffffffffffffffffffffffffffffffffffff1614156109a5576040517f08c379a000000000000000000000000000000000000000000000000000000000815260040161099c906130c8565b60405180910390fd5b8073ffffffffffffffffffffffffffffffffffffffff166109c4611757565b73ffffffffffffffffffffffffffffffffffffffff1614806109f357506109f2816109ed611757565b6114fe565b5b610a32576040517f08c379a0000000000000000000000000000000000000000000000000000000008152600401610a299061315a565b60405180910390fd5b610a3c838361175f565b505050565b6000600f600083815260200190815260200160002060006101000a81548160ff0219169083151502179055506000600e600083815260200190815260200160002060006101000a81548160ff02191690831515021790555050565b6000600880549050905090565b610aba610ab4611757565b82611818565b610af9576040517f08c379a0000000000000000000000000000000000000000000000000000000008152600401610af0906131ec565b60405180910390fd5b610b048383836118f6565b505050565b6000610b1483610dba565b8210610b55576040517f08c379a0000000000000000000000000000000000000000000000000000000008152600401610b4c9061327e565b60405180910390fd5b600660008473ffffffffffffffffffffffffffffffffffffffff1673ffffffffffffffffffffffffffffffffffffffff168152602001908152602001600020600083815260200190815260200160002054905092915050565b60001515600f600085815260200190815260200160002060009054906101000a900460ff16151514610bdf57600080fd5b6001600e600085815260200190815260200160002060006101000a81548160ff021916908315150217905550610c158484611017565b610c1d6125bf565b8281600001818152505081816020018181525050806010600086815260200190815260200160002060008201518160000155602082015181600101559050505050505050565b610c7e838383604051806020016040528060008152506111a6565b505050565b6000610c8f8383611818565b905092915050565b6000610ca1610a9c565b8210610ce2576040517f08c379a0000000000000000000000000000000000000000000000000000000008152600401610cd990613310565b60405180910390fd5b60088281548110610cf657610cf5613330565b5b90600052602060002001549050919050565b6000806002600084815260200190815260200160002060009054906101000a900473ffffffffffffffffffffffffffffffffffffffff169050600073ffffffffffffffffffffffffffffffffffffffff168173ffffffffffffffffffffffffffffffffffffffff161415610db1576040517f08c379a0000000000000000000000000000000000000000000000000000000008152600401610da8906133d1565b60405180910390fd5b80915050919050565b60008073ffffffffffffffffffffffffffffffffffffffff168273ffffffffffffffffffffffffffffffffffffffff161415610e2b576040517f08c379a0000000000000000000000000000000000000000000000000000000008152600401610e2290613463565b60405180910390fd5b600360008373ffffffffffffffffffffffffffffffffffffffff1673ffffffffffffffffffffffffffffffffffffffff168152602001908152602001600020549050919050565b60003373ffffffffffffffffffffffffffffffffffffffff16610e9484610d08565b73ffffffffffffffffffffffffffffffffffffffff1614610eb457600080fd5b81600c6000858152602001908152602001600020600301819055506001905092915050565b600b8181548110610ee957600080fd5b906000526020600020016000915090508054610f0490612f92565b80601f0160208091040260200160405190810160405280929190818152602001828054610f3090612f92565b8015610f7d5780601f10610f5257610100808354040283529160200191610f7d565b820191906000526020600020905b815481529060010190602001808311610f6057829003601f168201915b505050505081565b606060018054610f9490612f92565b80601f0160208091040260200160405190810160405280929190818152602001828054610fc090612f92565b801561100d5780601f10610fe25761010080835404028352916020019161100d565b820191906000526020600020905b815481529060010190602001808311610ff057829003601f168201915b5050505050905090565b6110218282610929565b5050565b61102d611757565b73ffffffffffffffffffffffffffffffffffffffff168273ffffffffffffffffffffffffffffffffffffffff16141561109b576040517f08c379a0000000000000000000000000000000000000000000000000000000008152600401611092906134cf565b60405180910390fd5b80600560006110a8611757565b73ffffffffffffffffffffffffffffffffffffffff1673ffffffffffffffffffffffffffffffffffffffff16815260200190815260200160002060008473ffffffffffffffffffffffffffffffffffffffff1673ffffffffffffffffffffffffffffffffffffffff16815260200190815260200160002060006101000a81548160ff0219169083151502179055508173ffffffffffffffffffffffffffffffffffffffff16611155611757565b73ffffffffffffffffffffffffffffffffffffffff167f17307eab39ab6107e8899845ad3d59bd9653f200f220920489ca2b5937696c318360405161119a919061275f565b60405180910390a35050565b6111b76111b1611757565b83611818565b6111f6576040517f08c379a00000000000000000000000000000000000000000000000000000000081526004016111ed906131ec565b60405180910390fd5b61120284848484611b52565b50505050565b6000600d8460405161121a919061352b565b908152602001604051809103902060009054906101000a900460ff161561124057600080fd5b6112486125d9565b86816000018190525085816020018190525084816040018190525083816060018181525050828160800181905250600b839080600181540180825580915050600190039060005260206000200160009091909190915090805190602001906112b1929190612608565b5060006001600b805490506112c69190613571565b905081600c600083815260200190815260200160002060008201518160000190805190602001906112f8929190612608565b506020820151816001019080519060200190611315929190612608565b506040820151816002019080519060200190611332929190612608565b50606082015181600301556080820151816004019080519060200190611359929190612608565b509050506113673382611bae565b6001600d85604051611379919061352b565b908152602001604051809103902060006101000a81548160ff021916908315150217905550809250505095945050505050565b60606113b7826116eb565b6113f6576040517f08c379a00000000000000000000000000000000000000000000000000000000081526004016113ed90613617565b60405180910390fd5b6000600a6000848152602001908152602001600020805461141690612f92565b80601f016020809104026020016040519081016040528092919081815260200182805461144290612f92565b801561148f5780601f106114645761010080835404028352916020019161148f565b820191906000526020600020905b81548152906001019060200180831161147257829003601f168201915b5050505050905060006114a0611d7c565b90506000815114156114b65781925050506114f9565b6000825111156114eb5780826040516020016114d3929190613637565b604051602081830303815290604052925050506114f9565b6114f484611d93565b925050505b919050565b6000600560008473ffffffffffffffffffffffffffffffffffffffff1673ffffffffffffffffffffffffffffffffffffffff16815260200190815260200160002060008373ffffffffffffffffffffffffffffffffffffffff1673ffffffffffffffffffffffffffffffffffffffff16815260200190815260200160002060009054906101000a900460ff16905092915050565b60001515600e600084815260200190815260200160002060009054906101000a900460ff161515146115c357600080fd5b6001600f600084815260200190815260200160002060006101000a81548160ff0219169083151502179055506115f98282610e72565b506116048383611017565b505050565b60007f80ac58cd000000000000000000000000000000000000000000000000000000007bffffffffffffffffffffffffffffffffffffffffffffffffffffffff1916827bffffffffffffffffffffffffffffffffffffffffffffffffffffffff191614806116d457507f5b5e139f000000000000000000000000000000000000000000000000000000007bffffffffffffffffffffffffffffffffffffffffffffffffffffffff1916827bffffffffffffffffffffffffffffffffffffffffffffffffffffffff1916145b806116e457506116e382611e3a565b5b9050919050565b60008073ffffffffffffffffffffffffffffffffffffffff166002600084815260200190815260200160002060009054906101000a900473ffffffffffffffffffffffffffffffffffffffff1673ffffffffffffffffffffffffffffffffffffffff1614159050919050565b600033905090565b816004600083815260200190815260200160002060006101000a81548173ffffffffffffffffffffffffffffffffffffffff021916908373ffffffffffffffffffffffffffffffffffffffff160217905550808273ffffffffffffffffffffffffffffffffffffffff166117d283610d08565b73ffffffffffffffffffffffffffffffffffffffff167f8c5be1e5ebec7d5bd14f71427d1e84f3dd0314c0f7b2291e5b200ac8c7c3b92560405160405180910390a45050565b6000611823826116eb565b611862576040517f08c379a0000000000000000000000000000000000000000000000000000000008152600401611859906136cd565b60405180910390fd5b600061186d83610d08565b90508073ffffffffffffffffffffffffffffffffffffffff168473ffffffffffffffffffffffffffffffffffffffff1614806118dc57508373ffffffffffffffffffffffffffffffffffffffff166118c4846108a4565b73ffffffffffffffffffffffffffffffffffffffff16145b806118ed57506118ec81856114fe565b5b91505092915050565b8273ffffffffffffffffffffffffffffffffffffffff1661191682610d08565b73ffffffffffffffffffffffffffffffffffffffff161461196c576040517f08c379a00000000000000000000000000000000000000000000000000000000081526004016119639061375f565b60405180910390fd5b600073ffffffffffffffffffffffffffffffffffffffff168273ffffffffffffffffffffffffffffffffffffffff1614156119dc576040517f08c379a00000000000000000000000000000000000000000000000000000000081526004016119d3906137f1565b60405180910390fd5b6119e7838383611ea4565b6119f260008261175f565b6001600360008573ffffffffffffffffffffffffffffffffffffffff1673ffffffffffffffffffffffffffffffffffffffff1681526020019081526020016000206000828254611a429190613571565b925050819055506001600360008473ffffffffffffffffffffffffffffffffffffffff1673ffffffffffffffffffffffffffffffffffffffff1681526020019081526020016000206000828254611a999190613811565b92505081905550816002600083815260200190815260200160002060006101000a81548173ffffffffffffffffffffffffffffffffffffffff021916908373ffffffffffffffffffffffffffffffffffffffff160217905550808273ffffffffffffffffffffffffffffffffffffffff168473ffffffffffffffffffffffffffffffffffffffff167fddf252ad1be2c89b69c2b068fc378daa952ba7f163c4a11628f55a4df523b3ef60405160405180910390a4505050565b611b5d8484846118f6565b611b6984848484611fb8565b611ba8576040517f08c379a0000000000000000000000000000000000000000000000000000000008152600401611b9f906138d9565b60405180910390fd5b50505050565b600073ffffffffffffffffffffffffffffffffffffffff168273ffffffffffffffffffffffffffffffffffffffff161415611c1e576040517f08c379a0000000000000000000000000000000000000000000000000000000008152600401611c1590613945565b60405180910390fd5b611c27816116eb565b15611c67576040517f08c379a0000000000000000000000000000000000000000000000000000000008152600401611c5e906139b1565b60405180910390fd5b611c7360008383611ea4565b6001600360008473ffffffffffffffffffffffffffffffffffffffff1673ffffffffffffffffffffffffffffffffffffffff1681526020019081526020016000206000828254611cc39190613811565b92505081905550816002600083815260200190815260200160002060006101000a81548173ffffffffffffffffffffffffffffffffffffffff021916908373ffffffffffffffffffffffffffffffffffffffff160217905550808273ffffffffffffffffffffffffffffffffffffffff16600073ffffffffffffffffffffffffffffffffffffffff167fddf252ad1be2c89b69c2b068fc378daa952ba7f163c4a11628f55a4df523b3ef60405160405180910390a45050565b606060405180602001604052806000815250905090565b6060611d9e826116eb565b611ddd576040517f08c379a0000000000000000000000000000000000000000000000000000000008152600401611dd490613a43565b60405180910390fd5b6000611de7611d7c565b90506000815111611e075760405180602001604052806000815250611e32565b80611e1184612140565b604051602001611e22929190613637565b6040516020818303038152906040525b915050919050565b60007f01ffc9a7000000000000000000000000000000000000000000000000000000007bffffffffffffffffffffffffffffffffffffffffffffffffffffffff1916827bffffffffffffffffffffffffffffffffffffffffffffffffffffffff1916149050919050565b611eaf8383836122a1565b600073ffffffffffffffffffffffffffffffffffffffff168373ffffffffffffffffffffffffffffffffffffffff161415611ef257611eed816122a6565b611f31565b8173ffffffffffffffffffffffffffffffffffffffff168373ffffffffffffffffffffffffffffffffffffffff1614611f3057611f2f83826122ef565b5b5b600073ffffffffffffffffffffffffffffffffffffffff168273ffffffffffffffffffffffffffffffffffffffff161415611f7457611f6f8161245c565b611fb3565b8273ffffffffffffffffffffffffffffffffffffffff168273ffffffffffffffffffffffffffffffffffffffff1614611fb257611fb1828261252d565b5b5b505050565b6000611fd98473ffffffffffffffffffffffffffffffffffffffff166125ac565b15612133578373ffffffffffffffffffffffffffffffffffffffff1663150b7a02612002611757565b8786866040518563ffffffff1660e01b81526004016120249493929190613ab8565b6020604051808303816000875af192505050801561206057506040513d601f19601f8201168201806040525081019061205d9190613b19565b60015b6120e3573d8060008114612090576040519150601f19603f3d011682016040523d82523d6000602084013e612095565b606091505b506000815114156120db576040517f08c379a00000000000000000000000000000000000000000000000000000000081526004016120d2906138d9565b60405180910390fd5b805181602001fd5b63150b7a0260e01b7bffffffffffffffffffffffffffffffffffffffffffffffffffffffff1916817bffffffffffffffffffffffffffffffffffffffffffffffffffffffff191614915050612138565b600190505b949350505050565b60606000821415612188576040518060400160405280600181526020017f3000000000000000000000000000000000000000000000000000000000000000815250905061229c565b600082905060005b600082146121ba5780806121a390613b46565b915050600a826121b39190613bbe565b9150612190565b60008167ffffffffffffffff8111156121d6576121d5612b96565b5b6040519080825280601f01601f1916602001820160405280156122085781602001600182028036833780820191505090505b5090505b60008514612295576001826122219190613571565b9150600a856122309190613bef565b603061223c9190613811565b60f81b81838151811061225257612251613330565b5b60200101907effffffffffffffffffffffffffffffffffffffffffffffffffffffffffffff1916908160001a905350600a8561228e9190613bbe565b945061220c565b8093505050505b919050565b505050565b6008805490506009600083815260200190815260200160002081905550600881908060018154018082558091505060019003906000526020600020016000909190919091505550565b600060016122fc84610dba565b6123069190613571565b90506000600760008481526020019081526020016000205490508181146123eb576000600660008673ffffffffffffffffffffffffffffffffffffffff1673ffffffffffffffffffffffffffffffffffffffff168152602001908152602001600020600084815260200190815260200160002054905080600660008773ffffffffffffffffffffffffffffffffffffffff1673ffffffffffffffffffffffffffffffffffffffff168152602001908152602001600020600084815260200190815260200160002081905550816007600083815260200190815260200160002081905550505b6007600084815260200190815260200160002060009055600660008573ffffffffffffffffffffffffffffffffffffffff1673ffffffffffffffffffffffffffffffffffffffff16815260200190815260200160002060008381526020019081526020016000206000905550505050565b600060016008805490506124709190613571565b90506000600960008481526020019081526020016000205490506000600883815481106124a05761249f613330565b5b9060005260206000200154905080600883815481106124c2576124c1613330565b5b90600052602060002001819055508160096000838152602001908152602001600020819055506009600085815260200190815260200160002060009055600880548061251157612510613c20565b5b6001900381819060005260206000200160009055905550505050565b600061253883610dba565b905081600660008573ffffffffffffffffffffffffffffffffffffffff1673ffffffffffffffffffffffffffffffffffffffff168152602001908152602001600020600083815260200190815260200160002081905550806007600084815260200190815260200160002081905550505050565b600080823b905060008111915050919050565b604051806040016040528060008152602001600081525090565b6040518060a0016040528060608152602001606081526020016060815260200160008152602001606081525090565b82805461261490612f92565b90600052602060002090601f016020900481019282612636576000855561267d565b82601f1061264f57805160ff191683800117855561267d565b8280016001018555821561267d579182015b8281111561267c578251825591602001919060010190612661565b5b50905061268a919061268e565b5090565b5b808211156126a757600081600090555060010161268f565b5090565b6000604051905090565b600080fd5b600080fd5b60007fffffffff0000000000000000000000000000000000000000000000000000000082169050919050565b6126f4816126bf565b81146126ff57600080fd5b50565b600081359050612711816126eb565b92915050565b60006020828403121561272d5761272c6126b5565b5b600061273b84828501612702565b91505092915050565b60008115159050919050565b61275981612744565b82525050565b60006020820190506127746000830184612750565b92915050565b6000819050919050565b61278d8161277a565b811461279857600080fd5b50565b6000813590506127aa81612784565b92915050565b6000602082840312156127c6576127c56126b5565b5b60006127d48482850161279b565b91505092915050565b600081519050919050565b600082825260208201905092915050565b60005b838110156128175780820151818401526020810190506127fc565b83811115612826576000848401525b50505050565b6000601f19601f8301169050919050565b6000612848826127dd565b61285281856127e8565b93506128628185602086016127f9565b61286b8161282c565b840191505092915050565b61287f8161277a565b82525050565b600060a082019050818103600083015261289f818861283d565b905081810360208301526128b3818761283d565b905081810360408301526128c7818661283d565b90506128d66060830185612876565b81810360808301526128e8818461283d565b90509695505050505050565b6000602082019050818103600083015261290e818461283d565b905092915050565b600073ffffffffffffffffffffffffffffffffffffffff82169050919050565b600061294182612916565b9050919050565b61295181612936565b82525050565b600060208201905061296c6000830184612948565b92915050565b61297b81612936565b811461298657600080fd5b50565b60008135905061299881612972565b92915050565b600080604083850312156129b5576129b46126b5565b5b60006129c385828601612989565b92505060206129d48582860161279b565b9150509250929050565b60006020820190506129f36000830184612876565b92915050565b600080600060608486031215612a1257612a116126b5565b5b6000612a2086828701612989565b9350506020612a3186828701612989565b9250506040612a428682870161279b565b9150509250925092565b60008060008060808587031215612a6657612a656126b5565b5b6000612a7487828801612989565b9450506020612a858782880161279b565b9350506040612a968782880161279b565b9250506060612aa78782880161279b565b91505092959194509250565b600060208284031215612ac957612ac86126b5565b5b6000612ad784828501612989565b91505092915050565b60008060408385031215612af757612af66126b5565b5b6000612b058582860161279b565b9250506020612b168582860161279b565b9150509250929050565b612b2981612744565b8114612b3457600080fd5b50565b600081359050612b4681612b20565b92915050565b60008060408385031215612b6357612b626126b5565b5b6000612b7185828601612989565b9250506020612b8285828601612b37565b9150509250929050565b600080fd5b600080fd5b7f4e487b7100000000000000000000000000000000000000000000000000000000600052604160045260246000fd5b612bce8261282c565b810181811067ffffffffffffffff82111715612bed57612bec612b96565b5b80604052505050565b6000612c006126ab565b9050612c0c8282612bc5565b919050565b600067ffffffffffffffff821115612c2c57612c2b612b96565b5b612c358261282c565b9050602081019050919050565b82818337600083830152505050565b6000612c64612c5f84612c11565b612bf6565b905082815260208101848484011115612c8057612c7f612b91565b5b612c8b848285612c42565b509392505050565b600082601f830112612ca857612ca7612b8c565b5b8135612cb8848260208601612c51565b91505092915050565b60008060008060808587031215612cdb57612cda6126b5565b5b6000612ce987828801612989565b9450506020612cfa87828801612989565b9350506040612d0b8782880161279b565b925050606085013567ffffffffffffffff811115612d2c57612d2b6126ba565b5b612d3887828801612c93565b91505092959194509250565b600067ffffffffffffffff821115612d5f57612d5e612b96565b5b612d688261282c565b9050602081019050919050565b6000612d88612d8384612d44565b612bf6565b905082815260208101848484011115612da457612da3612b91565b5b612daf848285612c42565b509392505050565b600082601f830112612dcc57612dcb612b8c565b5b8135612ddc848260208601612d75565b91505092915050565b600080600080600060a08688031215612e0157612e006126b5565b5b600086013567ffffffffffffffff811115612e1f57612e1e6126ba565b5b612e2b88828901612db7565b955050602086013567ffffffffffffffff811115612e4c57612e4b6126ba565b5b612e5888828901612db7565b945050604086013567ffffffffffffffff811115612e7957612e786126ba565b5b612e8588828901612db7565b9350506060612e968882890161279b565b925050608086013567ffffffffffffffff811115612eb757612eb66126ba565b5b612ec388828901612db7565b9150509295509295909350565b60008060408385031215612ee757612ee66126b5565b5b6000612ef585828601612989565b9250506020612f0685828601612989565b9150509250929050565b600080600060608486031215612f2957612f286126b5565b5b6000612f3786828701612989565b9350506020612f488682870161279b565b9250506040612f598682870161279b565b9150509250925092565b7f4e487b7100000000000000000000000000000000000000000000000000000000600052602260045260246000fd5b60006002820490506001821680612faa57607f821691505b60208210811415612fbe57612fbd612f63565b5b50919050565b7f4552433732313a20617070726f76656420717565727920666f72206e6f6e657860008201527f697374656e7420746f6b656e0000000000000000000000000000000000000000602082015250565b6000613020602c836127e8565b915061302b82612fc4565b604082019050919050565b6000602082019050818103600083015261304f81613013565b9050919050565b7f4552433732313a20617070726f76616c20746f2063757272656e74206f776e6560008201527f7200000000000000000000000000000000000000000000000000000000000000602082015250565b60006130b26021836127e8565b91506130bd82613056565b604082019050919050565b600060208201905081810360008301526130e1816130a5565b9050919050565b7f4552433732313a20617070726f76652063616c6c6572206973206e6f74206f7760008201527f6e6572206e6f7220617070726f76656420666f7220616c6c0000000000000000602082015250565b60006131446038836127e8565b915061314f826130e8565b604082019050919050565b6000602082019050818103600083015261317381613137565b9050919050565b7f4552433732313a207472616e736665722063616c6c6572206973206e6f74206f60008201527f776e6572206e6f7220617070726f766564000000000000000000000000000000602082015250565b60006131d66031836127e8565b91506131e18261317a565b604082019050919050565b60006020820190508181036000830152613205816131c9565b9050919050565b7f455243373231456e756d657261626c653a206f776e657220696e646578206f7560008201527f74206f6620626f756e6473000000000000000000000000000000000000000000602082015250565b6000613268602b836127e8565b91506132738261320c565b604082019050919050565b600060208201905081810360008301526132978161325b565b9050919050565b7f455243373231456e756d657261626c653a20676c6f62616c20696e646578206f60008201527f7574206f6620626f756e64730000000000000000000000000000000000000000602082015250565b60006132fa602c836127e8565b91506133058261329e565b604082019050919050565b60006020820190508181036000830152613329816132ed565b9050919050565b7f4e487b7100000000000000000000000000000000000000000000000000000000600052603260045260246000fd5b7f4552433732313a206f776e657220717565727920666f72206e6f6e657869737460008201527f656e7420746f6b656e0000000000000000000000000000000000000000000000602082015250565b60006133bb6029836127e8565b91506133c68261335f565b604082019050919050565b600060208201905081810360008301526133ea816133ae565b9050919050565b7f4552433732313a2062616c616e636520717565727920666f7220746865207a6560008201527f726f206164647265737300000000000000000000000000000000000000000000602082015250565b600061344d602a836127e8565b9150613458826133f1565b604082019050919050565b6000602082019050818103600083015261347c81613440565b9050919050565b7f4552433732313a20617070726f766520746f2063616c6c657200000000000000600082015250565b60006134b96019836127e8565b91506134c482613483565b602082019050919050565b600060208201905081810360008301526134e8816134ac565b9050919050565b600081905092915050565b6000613505826127dd565b61350f81856134ef565b935061351f8185602086016127f9565b80840191505092915050565b600061353782846134fa565b915081905092915050565b7f4e487b7100000000000000000000000000000000000000000000000000000000600052601160045260246000fd5b600061357c8261277a565b91506135878361277a565b92508282101561359a57613599613542565b5b828203905092915050565b7f45524337323155524953746f726167653a2055524920717565727920666f722060008201527f6e6f6e6578697374656e7420746f6b656e000000000000000000000000000000602082015250565b60006136016031836127e8565b915061360c826135a5565b604082019050919050565b60006020820190508181036000830152613630816135f4565b9050919050565b600061364382856134fa565b915061364f82846134fa565b91508190509392505050565b7f4552433732313a206f70657261746f7220717565727920666f72206e6f6e657860008201527f697374656e7420746f6b656e0000000000000000000000000000000000000000602082015250565b60006136b7602c836127e8565b91506136c28261365b565b604082019050919050565b600060208201905081810360008301526136e6816136aa565b9050919050565b7f4552433732313a207472616e73666572206f6620746f6b656e2074686174206960008201527f73206e6f74206f776e0000000000000000000000000000000000000000000000602082015250565b60006137496029836127e8565b9150613754826136ed565b604082019050919050565b600060208201905081810360008301526137788161373c565b9050919050565b7f4552433732313a207472616e7366657220746f20746865207a65726f2061646460008201527f7265737300000000000000000000000000000000000000000000000000000000602082015250565b60006137db6024836127e8565b91506137e68261377f565b604082019050919050565b6000602082019050818103600083015261380a816137ce565b9050919050565b600061381c8261277a565b91506138278361277a565b9250827fffffffffffffffffffffffffffffffffffffffffffffffffffffffffffffffff0382111561385c5761385b613542565b5b828201905092915050565b7f4552433732313a207472616e7366657220746f206e6f6e20455243373231526560008201527f63656976657220696d706c656d656e7465720000000000000000000000000000602082015250565b60006138c36032836127e8565b91506138ce82613867565b604082019050919050565b600060208201905081810360008301526138f2816138b6565b9050919050565b7f4552433732313a206d696e7420746f20746865207a65726f2061646472657373600082015250565b600061392f6020836127e8565b915061393a826138f9565b602082019050919050565b6000602082019050818103600083015261395e81613922565b9050919050565b7f4552433732313a20746f6b656e20616c7265616479206d696e74656400000000600082015250565b600061399b601c836127e8565b91506139a682613965565b602082019050919050565b600060208201905081810360008301526139ca8161398e565b9050919050565b7f4552433732314d657461646174613a2055524920717565727920666f72206e6f60008201527f6e6578697374656e7420746f6b656e0000000000000000000000000000000000602082015250565b6000613a2d602f836127e8565b9150613a38826139d1565b604082019050919050565b60006020820190508181036000830152613a5c81613a20565b9050919050565b600081519050919050565b600082825260208201905092915050565b6000613a8a82613a63565b613a948185613a6e565b9350613aa48185602086016127f9565b613aad8161282c565b840191505092915050565b6000608082019050613acd6000830187612948565b613ada6020830186612948565b613ae76040830185612876565b8181036060830152613af98184613a7f565b905095945050505050565b600081519050613b13816126eb565b92915050565b600060208284031215613b2f57613b2e6126b5565b5b6000613b3d84828501613b04565b91505092915050565b6000613b518261277a565b91507fffffffffffffffffffffffffffffffffffffffffffffffffffffffffffffffff821415613b8457613b83613542565b5b600182019050919050565b7f4e487b7100000000000000000000000000000000000000000000000000000000600052601260045260246000fd5b6000613bc98261277a565b9150613bd48361277a565b925082613be457613be3613b8f565b5b828204905092915050565b6000613bfa8261277a565b9150613c058361277a565b925082613c1557613c14613b8f565b5b828206905092915050565b7f4e487b7100000000000000000000000000000000000000000000000000000000600052603160045260246000fdfea2646970667358221220de1c3fb29b85849d94e85b8a8d3dee64c21ce7c967cf3be86bfdfe6ea41e11bc64736f6c634300080a0033",
  "immutableReferences": {},
  "source": "pragma solidity >0.5.0;\r\n\r\nimport \"../openzeppelin/token/ERC721/extensions/ERC721Full.sol\";\r\nimport \"../openzeppelin/token/ERC721/extensions/IERC721Metadata.sol\";\r\n\r\ncontract ImageContract is IERC721Metadata, ERC721Full{\r\n\r\n  /**\r\n    2021-11-15    string hash  \r\n   */\r\n  struct metadata { \r\n  string name;\r\n  string description;\r\n  string url;\r\n  uint price;\r\n  string token;\r\n  }\r\n\r\n  string[] public images;\r\n  mapping(uint => metadata) public imageData;\r\n  mapping(string => bool) _imageExists;\r\n\r\n  mapping(uint => bool) _listedForAuction;\r\n  mapping(uint => bool) _listedForSale;\r\n\r\n\r\n  struct auctionData { \r\n  uint price;\r\n  uint time;\r\n  }\r\n  mapping(uint => auctionData) tokenAuction;\r\n\r\n\r\n  constructor() ERC721(\"Image_NFT\", \"IMG\") public {}\r\n\r\n  /**\r\n    upate : 2021-11-15\r\n    metadata  hash      \r\n   */\r\n  function mint(string memory _name, string memory _description, string memory _url, uint _price, string memory _hash) public returns (uint){\r\n    require(!_imageExists[_url]);\r\n\r\n    metadata memory md;\r\n    md.name = _name;\r\n    md.description = _description;\r\n    md.url = _url;\r\n    md.price = _price;\r\n    md.token = _hash;    //hash   \r\n    \r\n    //images.push(_url); //_url         \r\n    images.push(_hash);   //_hash     \r\n    uint _id = images.length -1;\r\n    imageData[_id] = md;\r\n    _mint(msg.sender, _id);\r\n    //_imageExists[_url] = true;  //_url         \r\n    _imageExists[_hash] = true;   //_hash     \r\n\r\n    return _id;\r\n  }\r\n\r\n  function approveNFT(address _to, uint _tokenId) public {\r\n    approve(_to, _tokenId);\r\n  }\r\n  \r\n  function isApprovedOrOwner(address _address, uint _tokenId) public returns (bool){\r\n    return _isApprovedOrOwner(_address, _tokenId);\r\n  }\r\n\r\n  function updatePrice(uint _id, uint _price) public returns (bool){\r\n    require(ownerOf(_id) == msg.sender);\r\n    imageData[_id].price = _price;\r\n\r\n    return true;\r\n  }\r\n\r\n  function approveForSale(address _to, uint _tokenId, uint _price) public {\r\n    require(_listedForAuction[_tokenId] == false);\r\n    _listedForSale[_tokenId] = true;\r\n    updatePrice(_tokenId, _price);\r\n    approveNFT(_to, _tokenId);\r\n  }\r\n\r\n  function approveForAuction(address _to, uint _tokenId, uint _price, uint _time) public {\r\n    require(_listedForSale[_tokenId] == false);\r\n    _listedForAuction[_tokenId] = true;\r\n    // updatePrice(_tokenId, _price);\r\n    approveNFT(_to, _tokenId);\r\n\r\n    auctionData memory ad;\r\n    ad.price = _price;\r\n    ad.time = _time;\r\n\r\n    tokenAuction[_tokenId] = ad;\r\n  }\r\n\r\n  function nftSold(uint _tokenId) public {\r\n    _listedForSale[_tokenId] = false;\r\n    _listedForAuction[_tokenId] = false;\r\n  }\r\n\r\n}",
  "sourcePath": "D:\\Projects\\jintech-NFT-marketplace\\src\\contracts\\ImageContract.sol",
  "compiler": {
    "name": "solc",
    "version": "0.8.10+commit.fc410830.Emscripten.clang"
  },
  "schemaVersion": "3.4.3",
  "updatedAt": "2021-12-08T04:27:11.357Z",
  "networkType": "ethereum",
  "devdoc": {
    "kind": "dev",
    "methods": {
      "approve(address,uint256)": {
        "details": "See {IERC721-approve}."
      },
      "balanceOf(address)": {
        "details": "See {IERC721-balanceOf}."
      },
      "getApproved(uint256)": {
        "details": "See {IERC721-getApproved}."
      },
      "isApprovedForAll(address,address)": {
        "details": "See {IERC721-isApprovedForAll}."
      },
      "name()": {
        "details": "See {IERC721Metadata-name}."
      },
      "ownerOf(uint256)": {
        "details": "See {IERC721-ownerOf}."
      },
      "safeTransferFrom(address,address,uint256)": {
        "details": "See {IERC721-safeTransferFrom}."
      },
      "safeTransferFrom(address,address,uint256,bytes)": {
        "details": "See {IERC721-safeTransferFrom}."
      },
      "setApprovalForAll(address,bool)": {
        "details": "See {IERC721-setApprovalForAll}."
      },
      "supportsInterface(bytes4)": {
        "details": "See {IERC165-supportsInterface}."
      },
      "symbol()": {
        "details": "See {IERC721Metadata-symbol}."
      },
      "tokenByIndex(uint256)": {
        "details": "See {IERC721Enumerable-tokenByIndex}."
      },
      "tokenOfOwnerByIndex(address,uint256)": {
        "details": "See {IERC721Enumerable-tokenOfOwnerByIndex}."
      },
      "tokenURI(uint256)": {
        "details": "See {IERC721Metadata-tokenURI}."
      },
      "totalSupply()": {
        "details": "See {IERC721Enumerable-totalSupply}."
      },
      "transferFrom(address,address,uint256)": {
        "details": "See {IERC721-transferFrom}."
      }
    },
    "version": 1
  },
  "userdoc": {
    "kind": "user",
    "methods": {
      "mint(string,string,string,uint256,string)": {
        "notice": "upate : 2021-11-15 metadata  hash      "
      }
    },
    "version": 1
  }
}